{
  "contractName": "CustomerRole",
  "abi": [
    {
      "inputs": [],
      "payable": false,
      "stateMutability": "nonpayable",
      "type": "constructor",
      "signature": "constructor"
    },
    {
      "anonymous": false,
      "inputs": [
        {
          "indexed": false,
          "name": "account",
          "type": "address"
        }
      ],
      "name": "CustomerAdded",
      "type": "event",
      "signature": "0xcd118a02bd36f224f6f1b93812f78d2bbc2c2dc1bc0f60c176e3b4fe09f1483f"
    },
    {
      "anonymous": false,
      "inputs": [
        {
          "indexed": false,
          "name": "account",
          "type": "address"
        }
      ],
      "name": "CustomerRemoved",
      "type": "event",
      "signature": "0xb4c88a9c5cd906354abdd1cc29e4f94c6c4de90754fb80ce51e6a33417bc81b6"
    },
    {
      "constant": true,
      "inputs": [
        {
          "name": "account",
          "type": "address"
        }
      ],
      "name": "isCustomer",
      "outputs": [
        {
          "name": "",
          "type": "bool"
        }
      ],
      "payable": false,
      "stateMutability": "view",
      "type": "function",
      "signature": "0x28fd5e83"
    },
    {
      "constant": false,
      "inputs": [
        {
          "name": "account",
          "type": "address"
        }
      ],
      "name": "addCustomer",
      "outputs": [],
      "payable": false,
      "stateMutability": "nonpayable",
      "type": "function",
      "signature": "0xad973d74"
    },
    {
      "constant": false,
      "inputs": [],
      "name": "renounceCustomer",
      "outputs": [],
      "payable": false,
      "stateMutability": "nonpayable",
      "type": "function",
      "signature": "0xac98e6db"
    }
  ],
  "bytecode": "0x608060405234801561001057600080fd5b506100293361002e640100000000026401000000009004565b610340565b61004c6000826100b264010000000002610515176401000000009004565b7fcd118a02bd36f224f6f1b93812f78d2bbc2c2dc1bc0f60c176e3b4fe09f1483f81604051808273ffffffffffffffffffffffffffffffffffffffff1673ffffffffffffffffffffffffffffffffffffffff16815260200191505060405180910390a150565b600073ffffffffffffffffffffffffffffffffffffffff168173ffffffffffffffffffffffffffffffffffffffff1614151515610157576040517f08c379a000000000000000000000000000000000000000000000000000000000815260040180806020018281038252600f8152602001807f696e76616c69642061646472657373000000000000000000000000000000000081525060200191505060405180910390fd5b6101708282610243640100000000026401000000009004565b1515156101e5576040517f08c379a00000000000000000000000000000000000000000000000000000000081526004018080602001828103825260188152602001807f6163636f756e7420616c72656164792068617320726f6c65000000000000000081525060200191505060405180910390fd5b60018260000160008373ffffffffffffffffffffffffffffffffffffffff1673ffffffffffffffffffffffffffffffffffffffff16815260200190815260200160002060006101000a81548160ff0219169083151502179055505050565b60008073ffffffffffffffffffffffffffffffffffffffff168273ffffffffffffffffffffffffffffffffffffffff16141515156102e9576040517f08c379a000000000000000000000000000000000000000000000000000000000815260040180806020018281038252600f8152602001807f696e76616c69642061646472657373000000000000000000000000000000000081525060200191505060405180910390fd5b8260000160008373ffffffffffffffffffffffffffffffffffffffff1673ffffffffffffffffffffffffffffffffffffffff16815260200190815260200160002060009054906101000a900460ff16905092915050565b6106c38061034f6000396000f3fe608060405234801561001057600080fd5b506004361061005e576000357c01000000000000000000000000000000000000000000000000000000009004806328fd5e8314610063578063ac98e6db146100bf578063ad973d74146100c9575b600080fd5b6100a56004803603602081101561007957600080fd5b81019080803573ffffffffffffffffffffffffffffffffffffffff16906020019092919050505061010d565b604051808215151515815260200191505060405180910390f35b6100c7610121565b005b61010b600480360360208110156100df57600080fd5b81019080803573ffffffffffffffffffffffffffffffffffffffff16906020019092919050505061012c565b005b600061011a6000836101b5565b9050919050565b61012a336102b2565b565b6101353361010d565b15156101a9576040517f08c379a000000000000000000000000000000000000000000000000000000000815260040180806020018281038252601e8152602001807f726f6c652076696f6c6174696f6e3a206e6f74206120637573746f6d6572000081525060200191505060405180910390fd5b6101b281610323565b50565b60008073ffffffffffffffffffffffffffffffffffffffff168273ffffffffffffffffffffffffffffffffffffffff161415151561025b576040517f08c379a000000000000000000000000000000000000000000000000000000000815260040180806020018281038252600f8152602001807f696e76616c69642061646472657373000000000000000000000000000000000081525060200191505060405180910390fd5b8260000160008373ffffffffffffffffffffffffffffffffffffffff1673ffffffffffffffffffffffffffffffffffffffff16815260200190815260200160002060009054906101000a900460ff16905092915050565b6102bd600082610394565b7fb4c88a9c5cd906354abdd1cc29e4f94c6c4de90754fb80ce51e6a33417bc81b681604051808273ffffffffffffffffffffffffffffffffffffffff1673ffffffffffffffffffffffffffffffffffffffff16815260200191505060405180910390a150565b61032e600082610515565b7fcd118a02bd36f224f6f1b93812f78d2bbc2c2dc1bc0f60c176e3b4fe09f1483f81604051808273ffffffffffffffffffffffffffffffffffffffff1673ffffffffffffffffffffffffffffffffffffffff16815260200191505060405180910390a150565b600073ffffffffffffffffffffffffffffffffffffffff168173ffffffffffffffffffffffffffffffffffffffff1614151515610439576040517f08c379a000000000000000000000000000000000000000000000000000000000815260040180806020018281038252600f8152602001807f696e76616c69642061646472657373000000000000000000000000000000000081525060200191505060405180910390fd5b61044382826101b5565b15156104b7576040517f08c379a00000000000000000000000000000000000000000000000000000000081526004018080602001828103825260188152602001807f6163636f756e7420646f65736e74206861766520726f6c65000000000000000081525060200191505060405180910390fd5b60008260000160008373ffffffffffffffffffffffffffffffffffffffff1673ffffffffffffffffffffffffffffffffffffffff16815260200190815260200160002060006101000a81548160ff0219169083151502179055505050565b600073ffffffffffffffffffffffffffffffffffffffff168173ffffffffffffffffffffffffffffffffffffffff16141515156105ba576040517f08c379a000000000000000000000000000000000000000000000000000000000815260040180806020018281038252600f8152602001807f696e76616c69642061646472657373000000000000000000000000000000000081525060200191505060405180910390fd5b6105c482826101b5565b151515610639576040517f08c379a00000000000000000000000000000000000000000000000000000000081526004018080602001828103825260188152602001807f6163636f756e7420616c72656164792068617320726f6c65000000000000000081525060200191505060405180910390fd5b60018260000160008373ffffffffffffffffffffffffffffffffffffffff1673ffffffffffffffffffffffffffffffffffffffff16815260200190815260200160002060006101000a81548160ff021916908315150217905550505056fea165627a7a7230582088042d7119d772c7fc83dd509e8266b4866a5b63ec31e60d00b7da4a66c5424d0029",
  "source": "pragma solidity ^0.5.2;\n\n// Import the library 'Roles'\nimport \"./Roles.sol\";\n\n// Define a contract 'CustomerRole' to manage this role - add, remove, check\n\ncontract CustomerRole {\n\n    // Define 2 events, one for Adding, and other for Removing\n    event CustomerAdded(address account);\n    event CustomerRemoved(address account);\n\n    // Define a struct 'customers' by inheriting from 'Roles' library, struct Role\n    Roles.Role private customers_;\n\n    // In the constructor make the address that deploys this contract the 1st customer\n    constructor() public {\n        _addCustomer(msg.sender);\n    }\n\n    // Define a modifier that checks to see if msg.sender has the appropriate role\n    modifier onlyCustomer() {\n        require(isCustomer(msg.sender), \"role violation: not a customer\");\n        _;\n    }\n\n    // Define a function 'isCustomer' to check this role\n    function isCustomer(address account) public view returns (bool) {\n        return Roles.has(customers_, account);\n    }\n\n    // Define a function 'addCustomer' that adds this role\n    function addCustomer(address account) public onlyCustomer {\n        _addCustomer(account);\n    }\n\n    // Define a function 'renounceCustomer' to renounce this role\n    function renounceCustomer() public {\n        _removeCustomer(msg.sender);\n    }\n\n    // Define an internal function '_addCustomer' to add this role, called by 'addCustomer'\n    function _addCustomer(address account) internal {\n        Roles.add(customers_, account);\n        emit CustomerAdded(account);\n    }\n\n    // Define an internal function '_removeCustomer' to remove this role, called by 'removeCustomer'\n    function _removeCustomer(address account) internal {\n        Roles.remove(customers_, account);\n        emit CustomerRemoved(account);\n    }\n}\n",
  "sourcePath": "/Users/alex/Documents/dev/blockchain/bdnd/term2/project1/contracts/coffeeaccesscontrol/CustomerRole.sol",
  "compiler": {
    "name": "solc",
    "version": "0.5.2+commit.1df8f40c.Emscripten.clang"
  },
  "schemaVersion": "3.0.6",
  "updatedAt": "2019-04-14T18:09:48.353Z",
  "devdoc": {
    "methods": {}
  },
  "userdoc": {
    "methods": {}
  }
}