{
  "contractName": "ShipperRole",
  "abi": [
    {
      "inputs": [],
      "payable": false,
      "stateMutability": "nonpayable",
      "type": "constructor"
    },
    {
      "anonymous": false,
      "inputs": [
        {
          "indexed": false,
          "name": "account",
          "type": "address"
        }
      ],
      "name": "ShipperAdded",
      "type": "event"
    },
    {
      "anonymous": false,
      "inputs": [
        {
          "indexed": false,
          "name": "account",
          "type": "address"
        }
      ],
      "name": "ShipperRemoved",
      "type": "event"
    },
    {
      "constant": true,
      "inputs": [
        {
          "name": "account",
          "type": "address"
        }
      ],
      "name": "isShipper",
      "outputs": [
        {
          "name": "",
          "type": "bool"
        }
      ],
      "payable": false,
      "stateMutability": "view",
      "type": "function"
    },
    {
      "constant": false,
      "inputs": [
        {
          "name": "account",
          "type": "address"
        }
      ],
      "name": "addShipper",
      "outputs": [],
      "payable": false,
      "stateMutability": "nonpayable",
      "type": "function"
    },
    {
      "constant": false,
      "inputs": [],
      "name": "renounceShipper",
      "outputs": [],
      "payable": false,
      "stateMutability": "nonpayable",
      "type": "function"
    }
  ],
  "bytecode": "0x608060405234801561001057600080fd5b506100293361002e640100000000026401000000009004565b610205565b61004c6000826100b2640100000000026102e2176401000000009004565b7fa6b0d643c10c5fda6645b77a5fb2e02bc2cbd3597d2a30910ca9f42db8b948ca81604051808273ffffffffffffffffffffffffffffffffffffffff1673ffffffffffffffffffffffffffffffffffffffff16815260200191505060405180910390a150565b600073ffffffffffffffffffffffffffffffffffffffff168173ffffffffffffffffffffffffffffffffffffffff16141515156100ee57600080fd5b6101078282610171640100000000026401000000009004565b15151561011357600080fd5b60018260000160008373ffffffffffffffffffffffffffffffffffffffff1673ffffffffffffffffffffffffffffffffffffffff16815260200190815260200160002060006101000a81548160ff0219169083151502179055505050565b60008073ffffffffffffffffffffffffffffffffffffffff168273ffffffffffffffffffffffffffffffffffffffff16141515156101ae57600080fd5b8260000160008373ffffffffffffffffffffffffffffffffffffffff1673ffffffffffffffffffffffffffffffffffffffff16815260200190815260200160002060009054906101000a900460ff16905092915050565b61046d806102146000396000f3fe608060405260043610610057576000357c0100000000000000000000000000000000000000000000000000000000900463ffffffff168063155a76461461005c578063d60c1d55146100ad578063de9edc9f14610116575b600080fd5b34801561006857600080fd5b506100ab6004803603602081101561007f57600080fd5b81019080803573ffffffffffffffffffffffffffffffffffffffff16906020019092919050505061012d565b005b3480156100b957600080fd5b506100fc600480360360208110156100d057600080fd5b81019080803573ffffffffffffffffffffffffffffffffffffffff16906020019092919050505061014d565b604051808215151515815260200191505060405180910390f35b34801561012257600080fd5b5061012b610161565b005b6101363361014d565b151561014157600080fd5b61014a8161016c565b50565b600061015a6000836101dd565b9050919050565b61016a33610271565b565b6101776000826102e2565b7fa6b0d643c10c5fda6645b77a5fb2e02bc2cbd3597d2a30910ca9f42db8b948ca81604051808273ffffffffffffffffffffffffffffffffffffffff1673ffffffffffffffffffffffffffffffffffffffff16815260200191505060405180910390a150565b60008073ffffffffffffffffffffffffffffffffffffffff168273ffffffffffffffffffffffffffffffffffffffff161415151561021a57600080fd5b8260000160008373ffffffffffffffffffffffffffffffffffffffff1673ffffffffffffffffffffffffffffffffffffffff16815260200190815260200160002060009054906101000a900460ff16905092915050565b61027c600082610392565b7f4098c33ee7259bdc6331fa574feb5904acfe84b01ace83ede4bc77e2d3ad673881604051808273ffffffffffffffffffffffffffffffffffffffff1673ffffffffffffffffffffffffffffffffffffffff16815260200191505060405180910390a150565b600073ffffffffffffffffffffffffffffffffffffffff168173ffffffffffffffffffffffffffffffffffffffff161415151561031e57600080fd5b61032882826101dd565b15151561033457600080fd5b60018260000160008373ffffffffffffffffffffffffffffffffffffffff1673ffffffffffffffffffffffffffffffffffffffff16815260200190815260200160002060006101000a81548160ff0219169083151502179055505050565b600073ffffffffffffffffffffffffffffffffffffffff168173ffffffffffffffffffffffffffffffffffffffff16141515156103ce57600080fd5b6103d882826101dd565b15156103e357600080fd5b60008260000160008373ffffffffffffffffffffffffffffffffffffffff1673ffffffffffffffffffffffffffffffffffffffff16815260200190815260200160002060006101000a81548160ff021916908315150217905550505056fea165627a7a72305820ec4b73d62d382ed9e95d179f9ca4306832c2457e9e1d34f85ad8033e152490820029",
  "source": "pragma solidity ^0.5.2;\n\n// Import the library 'Roles'\nimport \"./Roles.sol\";\n\n// Define a contract 'ShipperRole' to manage this role - add, remove, check\n\ncontract ShipperRole {\n\n    // Define 2 events, one for Adding, and other for Removing\n    event ShipperAdded(address account);\n    event ShipperRemoved(address account);\n\n    // Define a struct 'shippers' by inheriting from 'Roles' library, struct Role\n    Roles.Role private shippers_;\n\n    // In the constructor make the address that deploys this contract the 1st shipper\n    constructor() public {\n        _addShipper(msg.sender);\n    }\n\n    // Define a modifier that checks to see if msg.sender has the appropriate role\n    modifier onlyShipper() {\n        require(isShipper(msg.sender));\n        _;\n    }\n\n    // Define a function 'isShipper' to check this role\n    function isShipper(address account) public view returns (bool) {\n        return Roles.has(shippers_, account);\n    }\n\n    // Define a function 'addShipper' that adds this role\n    function addShipper(address account) public onlyShipper {\n        _addShipper(account);\n    }\n\n    // Define a function 'renounceShipper' to renounce this role\n    function renounceShipper() public {\n        _removeShipper(msg.sender);\n    }\n\n    // Define an internal function '_addShipper' to add this role, called by 'addShipper'\n    function _addShipper(address account) internal {\n        Roles.add(shippers_, account);\n        emit ShipperAdded(account);\n    }\n\n    // Define an internal function '_removeShipper' to remove this role, called by 'removeShipper'\n    function _removeShipper(address account) internal {\n        Roles.remove(shippers_, account);\n        emit ShipperRemoved(account);\n    }\n}\n",
  "sourcePath": "/Users/alex/Documents/dev/blockchain/bdnd/term2/project1/contracts/coffeeaccesscontrol/ShipperRole.sol",
  "compiler": {
    "name": "solc",
    "version": "0.5.0+commit.1d4f565a.Emscripten.clang"
  },
  "schemaVersion": "3.0.6",
  "updatedAt": "2019-04-11T21:46:13.907Z",
  "devdoc": {
    "methods": {}
  },
  "userdoc": {
    "methods": {}
  }
}