{
  "contractName": "ShipperRole",
  "abi": [
    {
      "inputs": [],
      "payable": false,
      "stateMutability": "nonpayable",
      "type": "constructor",
      "signature": "constructor"
    },
    {
      "anonymous": false,
      "inputs": [
        {
          "indexed": false,
          "name": "account",
          "type": "address"
        }
      ],
      "name": "ShipperAdded",
      "type": "event",
      "signature": "0xa6b0d643c10c5fda6645b77a5fb2e02bc2cbd3597d2a30910ca9f42db8b948ca"
    },
    {
      "anonymous": false,
      "inputs": [
        {
          "indexed": false,
          "name": "account",
          "type": "address"
        }
      ],
      "name": "ShipperRemoved",
      "type": "event",
      "signature": "0x4098c33ee7259bdc6331fa574feb5904acfe84b01ace83ede4bc77e2d3ad6738"
    },
    {
      "constant": true,
      "inputs": [
        {
          "name": "account",
          "type": "address"
        }
      ],
      "name": "isShipper",
      "outputs": [
        {
          "name": "",
          "type": "bool"
        }
      ],
      "payable": false,
      "stateMutability": "view",
      "type": "function",
      "signature": "0xd60c1d55"
    },
    {
      "constant": false,
      "inputs": [
        {
          "name": "account",
          "type": "address"
        }
      ],
      "name": "addShipper",
      "outputs": [],
      "payable": false,
      "stateMutability": "nonpayable",
      "type": "function",
      "signature": "0x155a7646"
    },
    {
      "constant": false,
      "inputs": [],
      "name": "renounceShipper",
      "outputs": [],
      "payable": false,
      "stateMutability": "nonpayable",
      "type": "function",
      "signature": "0xde9edc9f"
    }
  ],
  "bytecode": "0x608060405234801561001057600080fd5b506100293361002e640100000000026401000000009004565b610340565b61004c6000826100b264010000000002610394176401000000009004565b7fa6b0d643c10c5fda6645b77a5fb2e02bc2cbd3597d2a30910ca9f42db8b948ca81604051808273ffffffffffffffffffffffffffffffffffffffff1673ffffffffffffffffffffffffffffffffffffffff16815260200191505060405180910390a150565b600073ffffffffffffffffffffffffffffffffffffffff168173ffffffffffffffffffffffffffffffffffffffff1614151515610157576040517f08c379a000000000000000000000000000000000000000000000000000000000815260040180806020018281038252600f8152602001807f696e76616c69642061646472657373000000000000000000000000000000000081525060200191505060405180910390fd5b6101708282610243640100000000026401000000009004565b1515156101e5576040517f08c379a00000000000000000000000000000000000000000000000000000000081526004018080602001828103825260188152602001807f6163636f756e7420616c72656164792068617320726f6c65000000000000000081525060200191505060405180910390fd5b60018260000160008373ffffffffffffffffffffffffffffffffffffffff1673ffffffffffffffffffffffffffffffffffffffff16815260200190815260200160002060006101000a81548160ff0219169083151502179055505050565b60008073ffffffffffffffffffffffffffffffffffffffff168273ffffffffffffffffffffffffffffffffffffffff16141515156102e9576040517f08c379a000000000000000000000000000000000000000000000000000000000815260040180806020018281038252600f8152602001807f696e76616c69642061646472657373000000000000000000000000000000000081525060200191505060405180910390fd5b8260000160008373ffffffffffffffffffffffffffffffffffffffff1673ffffffffffffffffffffffffffffffffffffffff16815260200190815260200160002060009054906101000a900460ff16905092915050565b6106c38061034f6000396000f3fe608060405234801561001057600080fd5b506004361061005e576000357c010000000000000000000000000000000000000000000000000000000090048063155a764614610063578063d60c1d55146100a7578063de9edc9f14610103575b600080fd5b6100a56004803603602081101561007957600080fd5b81019080803573ffffffffffffffffffffffffffffffffffffffff16906020019092919050505061010d565b005b6100e9600480360360208110156100bd57600080fd5b81019080803573ffffffffffffffffffffffffffffffffffffffff169060200190929190505050610196565b604051808215151515815260200191505060405180910390f35b61010b6101aa565b005b61011633610196565b151561018a576040517f08c379a000000000000000000000000000000000000000000000000000000000815260040180806020018281038252601d8152602001807f726f6c652076696f6c6174696f6e3a206e6f742061207368697070657200000081525060200191505060405180910390fd5b610193816101b5565b50565b60006101a3600083610226565b9050919050565b6101b333610323565b565b6101c0600082610394565b7fa6b0d643c10c5fda6645b77a5fb2e02bc2cbd3597d2a30910ca9f42db8b948ca81604051808273ffffffffffffffffffffffffffffffffffffffff1673ffffffffffffffffffffffffffffffffffffffff16815260200191505060405180910390a150565b60008073ffffffffffffffffffffffffffffffffffffffff168273ffffffffffffffffffffffffffffffffffffffff16141515156102cc576040517f08c379a000000000000000000000000000000000000000000000000000000000815260040180806020018281038252600f8152602001807f696e76616c69642061646472657373000000000000000000000000000000000081525060200191505060405180910390fd5b8260000160008373ffffffffffffffffffffffffffffffffffffffff1673ffffffffffffffffffffffffffffffffffffffff16815260200190815260200160002060009054906101000a900460ff16905092915050565b61032e600082610516565b7f4098c33ee7259bdc6331fa574feb5904acfe84b01ace83ede4bc77e2d3ad673881604051808273ffffffffffffffffffffffffffffffffffffffff1673ffffffffffffffffffffffffffffffffffffffff16815260200191505060405180910390a150565b600073ffffffffffffffffffffffffffffffffffffffff168173ffffffffffffffffffffffffffffffffffffffff1614151515610439576040517f08c379a000000000000000000000000000000000000000000000000000000000815260040180806020018281038252600f8152602001807f696e76616c69642061646472657373000000000000000000000000000000000081525060200191505060405180910390fd5b6104438282610226565b1515156104b8576040517f08c379a00000000000000000000000000000000000000000000000000000000081526004018080602001828103825260188152602001807f6163636f756e7420616c72656164792068617320726f6c65000000000000000081525060200191505060405180910390fd5b60018260000160008373ffffffffffffffffffffffffffffffffffffffff1673ffffffffffffffffffffffffffffffffffffffff16815260200190815260200160002060006101000a81548160ff0219169083151502179055505050565b600073ffffffffffffffffffffffffffffffffffffffff168173ffffffffffffffffffffffffffffffffffffffff16141515156105bb576040517f08c379a000000000000000000000000000000000000000000000000000000000815260040180806020018281038252600f8152602001807f696e76616c69642061646472657373000000000000000000000000000000000081525060200191505060405180910390fd5b6105c58282610226565b1515610639576040517f08c379a00000000000000000000000000000000000000000000000000000000081526004018080602001828103825260188152602001807f6163636f756e7420646f65736e74206861766520726f6c65000000000000000081525060200191505060405180910390fd5b60008260000160008373ffffffffffffffffffffffffffffffffffffffff1673ffffffffffffffffffffffffffffffffffffffff16815260200190815260200160002060006101000a81548160ff021916908315150217905550505056fea165627a7a72305820d8870903d21739e2d611391ef6b6223c1ccc07855d15e15f53e23fffb15a7fb40029",
  "source": "pragma solidity ^0.5.2;\n\n// Import the library 'Roles'\nimport \"./Roles.sol\";\n\n// Define a contract 'ShipperRole' to manage this role - add, remove, check\n\ncontract ShipperRole {\n\n    // Define 2 events, one for Adding, and other for Removing\n    event ShipperAdded(address account);\n    event ShipperRemoved(address account);\n\n    // Define a struct 'shippers' by inheriting from 'Roles' library, struct Role\n    Roles.Role private shippers_;\n\n    // In the constructor make the address that deploys this contract the 1st shipper\n    constructor() public {\n        _addShipper(msg.sender);\n    }\n\n    // Define a modifier that checks to see if msg.sender has the appropriate role\n    modifier onlyShipper() {\n        require(isShipper(msg.sender), \"role violation: not a shipper\");\n        _;\n    }\n\n    // Define a function 'isShipper' to check this role\n    function isShipper(address account) public view returns (bool) {\n        return Roles.has(shippers_, account);\n    }\n\n    // Define a function 'addShipper' that adds this role\n    function addShipper(address account) public onlyShipper {\n        _addShipper(account);\n    }\n\n    // Define a function 'renounceShipper' to renounce this role\n    function renounceShipper() public {\n        _removeShipper(msg.sender);\n    }\n\n    // Define an internal function '_addShipper' to add this role, called by 'addShipper'\n    function _addShipper(address account) internal {\n        Roles.add(shippers_, account);\n        emit ShipperAdded(account);\n    }\n\n    // Define an internal function '_removeShipper' to remove this role, called by 'removeShipper'\n    function _removeShipper(address account) internal {\n        Roles.remove(shippers_, account);\n        emit ShipperRemoved(account);\n    }\n}\n",
  "sourcePath": "/Users/alex/Documents/dev/blockchain/bdnd/term2/project1/contracts/coffeeaccesscontrol/ShipperRole.sol",
  "compiler": {
    "name": "solc",
    "version": "0.5.2+commit.1df8f40c.Emscripten.clang"
  },
  "schemaVersion": "3.0.6",
  "updatedAt": "2019-04-14T18:09:48.348Z",
  "devdoc": {
    "methods": {}
  },
  "userdoc": {
    "methods": {}
  }
}