{
  "contractName": "SupermarketRole",
  "abi": [
    {
      "inputs": [],
      "payable": false,
      "stateMutability": "nonpayable",
      "type": "constructor",
      "signature": "constructor"
    },
    {
      "anonymous": false,
      "inputs": [
        {
          "indexed": true,
          "name": "account",
          "type": "address"
        }
      ],
      "name": "SupermarketAdded",
      "type": "event",
      "signature": "0x3e8b6c25714070dcebd930fe0d9592c40580e5afd0b4e8e3727181b801e733f5"
    },
    {
      "anonymous": false,
      "inputs": [
        {
          "indexed": true,
          "name": "account",
          "type": "address"
        }
      ],
      "name": "SupermarketRemoved",
      "type": "event",
      "signature": "0x15d2b381eb4092b28724b6b0527f13de7431b61db9e6f8ad6c171c35afbfb544"
    },
    {
      "constant": true,
      "inputs": [
        {
          "name": "account",
          "type": "address"
        }
      ],
      "name": "isSupermarket",
      "outputs": [
        {
          "name": "",
          "type": "bool"
        }
      ],
      "payable": false,
      "stateMutability": "view",
      "type": "function",
      "signature": "0xa2d7e561"
    },
    {
      "constant": false,
      "inputs": [
        {
          "name": "account",
          "type": "address"
        }
      ],
      "name": "addSupermarket",
      "outputs": [],
      "payable": false,
      "stateMutability": "nonpayable",
      "type": "function",
      "signature": "0xd3fc786f"
    },
    {
      "constant": false,
      "inputs": [],
      "name": "renounceSupermarket",
      "outputs": [],
      "payable": false,
      "stateMutability": "nonpayable",
      "type": "function",
      "signature": "0x14f6c371"
    }
  ],
  "bytecode": "0x608060405234801561001057600080fd5b506100293361002e640100000000026401000000009004565b610320565b61004c600082610092640100000000026104b8176401000000009004565b8073ffffffffffffffffffffffffffffffffffffffff167f3e8b6c25714070dcebd930fe0d9592c40580e5afd0b4e8e3727181b801e733f560405160405180910390a250565b600073ffffffffffffffffffffffffffffffffffffffff168173ffffffffffffffffffffffffffffffffffffffff1614151515610137576040517f08c379a000000000000000000000000000000000000000000000000000000000815260040180806020018281038252600f8152602001807f696e76616c69642061646472657373000000000000000000000000000000000081525060200191505060405180910390fd5b6101508282610223640100000000026401000000009004565b1515156101c5576040517f08c379a00000000000000000000000000000000000000000000000000000000081526004018080602001828103825260188152602001807f6163636f756e7420616c72656164792068617320726f6c65000000000000000081525060200191505060405180910390fd5b60018260000160008373ffffffffffffffffffffffffffffffffffffffff1673ffffffffffffffffffffffffffffffffffffffff16815260200190815260200160002060006101000a81548160ff0219169083151502179055505050565b60008073ffffffffffffffffffffffffffffffffffffffff168273ffffffffffffffffffffffffffffffffffffffff16141515156102c9576040517f08c379a000000000000000000000000000000000000000000000000000000000815260040180806020018281038252600f8152602001807f696e76616c69642061646472657373000000000000000000000000000000000081525060200191505060405180910390fd5b8260000160008373ffffffffffffffffffffffffffffffffffffffff1673ffffffffffffffffffffffffffffffffffffffff16815260200190815260200160002060009054906101000a900460ff16905092915050565b6106878061032f6000396000f3fe608060405234801561001057600080fd5b506004361061005e576000357c01000000000000000000000000000000000000000000000000000000009004806314f6c37114610063578063a2d7e5611461006d578063d3fc786f146100c9575b600080fd5b61006b61010d565b005b6100af6004803603602081101561008357600080fd5b81019080803573ffffffffffffffffffffffffffffffffffffffff169060200190929190505050610118565b604051808215151515815260200191505060405180910390f35b61010b600480360360208110156100df57600080fd5b81019080803573ffffffffffffffffffffffffffffffffffffffff16906020019092919050505061012c565b005b61011633610198565b565b60006101256000836101e9565b9050919050565b61013533610118565b151561018c576040517f08c379a000000000000000000000000000000000000000000000000000000000815260040180806020018281038252602181526020018061063b6021913960400191505060405180910390fd5b610195816102e6565b50565b6101a3600082610337565b8073ffffffffffffffffffffffffffffffffffffffff167f15d2b381eb4092b28724b6b0527f13de7431b61db9e6f8ad6c171c35afbfb54460405160405180910390a250565b60008073ffffffffffffffffffffffffffffffffffffffff168273ffffffffffffffffffffffffffffffffffffffff161415151561028f576040517f08c379a000000000000000000000000000000000000000000000000000000000815260040180806020018281038252600f8152602001807f696e76616c69642061646472657373000000000000000000000000000000000081525060200191505060405180910390fd5b8260000160008373ffffffffffffffffffffffffffffffffffffffff1673ffffffffffffffffffffffffffffffffffffffff16815260200190815260200160002060009054906101000a900460ff16905092915050565b6102f16000826104b8565b8073ffffffffffffffffffffffffffffffffffffffff167f3e8b6c25714070dcebd930fe0d9592c40580e5afd0b4e8e3727181b801e733f560405160405180910390a250565b600073ffffffffffffffffffffffffffffffffffffffff168173ffffffffffffffffffffffffffffffffffffffff16141515156103dc576040517f08c379a000000000000000000000000000000000000000000000000000000000815260040180806020018281038252600f8152602001807f696e76616c69642061646472657373000000000000000000000000000000000081525060200191505060405180910390fd5b6103e682826101e9565b151561045a576040517f08c379a00000000000000000000000000000000000000000000000000000000081526004018080602001828103825260188152602001807f6163636f756e7420646f65736e74206861766520726f6c65000000000000000081525060200191505060405180910390fd5b60008260000160008373ffffffffffffffffffffffffffffffffffffffff1673ffffffffffffffffffffffffffffffffffffffff16815260200190815260200160002060006101000a81548160ff0219169083151502179055505050565b600073ffffffffffffffffffffffffffffffffffffffff168173ffffffffffffffffffffffffffffffffffffffff161415151561055d576040517f08c379a000000000000000000000000000000000000000000000000000000000815260040180806020018281038252600f8152602001807f696e76616c69642061646472657373000000000000000000000000000000000081525060200191505060405180910390fd5b61056782826101e9565b1515156105dc576040517f08c379a00000000000000000000000000000000000000000000000000000000081526004018080602001828103825260188152602001807f6163636f756e7420616c72656164792068617320726f6c65000000000000000081525060200191505060405180910390fd5b60018260000160008373ffffffffffffffffffffffffffffffffffffffff1673ffffffffffffffffffffffffffffffffffffffff16815260200190815260200160002060006101000a81548160ff021916908315150217905550505056fe726f6c652076696f6c6174696f6e3a206e6f7420612073757065726d61726b6574a165627a7a72305820ae238acbf657c725db4ea811cfe240b84c23dc6920b9433d4d7c9991a161c3af0029",
  "source": "pragma solidity ^0.5.2;\n\n// Import the library 'Roles'\nimport \"./Roles.sol\";\n\n// Define a contract 'SupermarketRole' to manage this role - add, remove, check\n\ncontract SupermarketRole {\n\n    // Define 2 events, one for Adding, and other for Removing\n    event SupermarketAdded(address indexed account);\n    event SupermarketRemoved(address indexed account);\n\n    // Define a struct 'superMarkets' by inheriting from 'Roles' library, struct Role\n    Roles.Role private superMarkets_;\n\n    // In the constructor make the address that deploys this contract the 1st superMarket\n    constructor() public {\n        _addSupermarket(msg.sender);\n    }\n\n    // Define a modifier that checks to see if msg.sender has the appropriate role\n    modifier onlySupermarket() {\n        require(isSupermarket(msg.sender), \"role violation: not a supermarket\");\n        _;\n    }\n\n    // Define a function 'isSupermarket' to check this role\n    function isSupermarket(address account) public view returns (bool) {\n        return Roles.has(superMarkets_, account);\n    }\n\n    // Define a function 'addSupermarket' that adds this role\n    function addSupermarket(address account) public onlySupermarket {\n        _addSupermarket(account);\n    }\n\n    // Define a function 'renounceSupermarket' to renounce this role\n    function renounceSupermarket() public {\n        _removeSupermarket(msg.sender);\n    }\n\n    // Define an internal function '_addSupermarket' to add this role, called by 'addSupermarket'\n    function _addSupermarket(address account) internal {\n        Roles.add(superMarkets_, account);\n        emit SupermarketAdded(account);\n    }\n\n    // Define an internal function '_removeSupermarket' to remove this role, called by 'removeSupermarket'\n    function _removeSupermarket(address account) internal {\n        Roles.remove(superMarkets_, account);\n        emit SupermarketRemoved(account);\n    }\n}\n",
  "sourcePath": "/Users/alex/Documents/dev/blockchain/bdnd/term2/project1/contracts/coffeeaccesscontrol/SupermarketRole.sol",
  "compiler": {
    "name": "solc",
    "version": "0.5.2+commit.1df8f40c.Emscripten.clang"
  },
  "schemaVersion": "3.0.6",
  "updatedAt": "2019-04-16T20:56:16.459Z",
  "devdoc": {
    "methods": {}
  },
  "userdoc": {
    "methods": {}
  }
}