{
  "contractName": "SupermarketRole",
  "abi": [
    {
      "inputs": [],
      "payable": false,
      "stateMutability": "nonpayable",
      "type": "constructor"
    },
    {
      "anonymous": false,
      "inputs": [
        {
          "indexed": true,
          "name": "account",
          "type": "address"
        }
      ],
      "name": "SupermarketAdded",
      "type": "event"
    },
    {
      "anonymous": false,
      "inputs": [
        {
          "indexed": true,
          "name": "account",
          "type": "address"
        }
      ],
      "name": "SupermarketRemoved",
      "type": "event"
    },
    {
      "constant": true,
      "inputs": [
        {
          "name": "account",
          "type": "address"
        }
      ],
      "name": "isSupermarket",
      "outputs": [
        {
          "name": "",
          "type": "bool"
        }
      ],
      "payable": false,
      "stateMutability": "view",
      "type": "function"
    },
    {
      "constant": false,
      "inputs": [
        {
          "name": "account",
          "type": "address"
        }
      ],
      "name": "addSupermarket",
      "outputs": [],
      "payable": false,
      "stateMutability": "nonpayable",
      "type": "function"
    },
    {
      "constant": false,
      "inputs": [],
      "name": "renounceSupermarket",
      "outputs": [],
      "payable": false,
      "stateMutability": "nonpayable",
      "type": "function"
    }
  ],
  "bytecode": "0x608060405234801561001057600080fd5b506100293361002e640100000000026401000000009004565b6101e5565b61004c60008261009264010000000002610351176401000000009004565b8073ffffffffffffffffffffffffffffffffffffffff167f3e8b6c25714070dcebd930fe0d9592c40580e5afd0b4e8e3727181b801e733f560405160405180910390a250565b600073ffffffffffffffffffffffffffffffffffffffff168173ffffffffffffffffffffffffffffffffffffffff16141515156100ce57600080fd5b6100e78282610151640100000000026401000000009004565b1515156100f357600080fd5b60018260000160008373ffffffffffffffffffffffffffffffffffffffff1673ffffffffffffffffffffffffffffffffffffffff16815260200190815260200160002060006101000a81548160ff0219169083151502179055505050565b60008073ffffffffffffffffffffffffffffffffffffffff168273ffffffffffffffffffffffffffffffffffffffff161415151561018e57600080fd5b8260000160008373ffffffffffffffffffffffffffffffffffffffff1673ffffffffffffffffffffffffffffffffffffffff16815260200190815260200160002060009054906101000a900460ff16905092915050565b61042d806101f46000396000f3fe608060405260043610610057576000357c0100000000000000000000000000000000000000000000000000000000900463ffffffff16806314f6c3711461005c578063a2d7e56114610073578063d3fc786f146100dc575b600080fd5b34801561006857600080fd5b5061007161012d565b005b34801561007f57600080fd5b506100c26004803603602081101561009657600080fd5b81019080803573ffffffffffffffffffffffffffffffffffffffff169060200190929190505050610138565b604051808215151515815260200191505060405180910390f35b3480156100e857600080fd5b5061012b600480360360208110156100ff57600080fd5b81019080803573ffffffffffffffffffffffffffffffffffffffff16906020019092919050505061014c565b005b6101363361016c565b565b60006101456000836101bd565b9050919050565b61015533610138565b151561016057600080fd5b61016981610251565b50565b6101776000826102a2565b8073ffffffffffffffffffffffffffffffffffffffff167f15d2b381eb4092b28724b6b0527f13de7431b61db9e6f8ad6c171c35afbfb54460405160405180910390a250565b60008073ffffffffffffffffffffffffffffffffffffffff168273ffffffffffffffffffffffffffffffffffffffff16141515156101fa57600080fd5b8260000160008373ffffffffffffffffffffffffffffffffffffffff1673ffffffffffffffffffffffffffffffffffffffff16815260200190815260200160002060009054906101000a900460ff16905092915050565b61025c600082610351565b8073ffffffffffffffffffffffffffffffffffffffff167f3e8b6c25714070dcebd930fe0d9592c40580e5afd0b4e8e3727181b801e733f560405160405180910390a250565b600073ffffffffffffffffffffffffffffffffffffffff168173ffffffffffffffffffffffffffffffffffffffff16141515156102de57600080fd5b6102e882826101bd565b15156102f357600080fd5b60008260000160008373ffffffffffffffffffffffffffffffffffffffff1673ffffffffffffffffffffffffffffffffffffffff16815260200190815260200160002060006101000a81548160ff0219169083151502179055505050565b600073ffffffffffffffffffffffffffffffffffffffff168173ffffffffffffffffffffffffffffffffffffffff161415151561038d57600080fd5b61039782826101bd565b1515156103a357600080fd5b60018260000160008373ffffffffffffffffffffffffffffffffffffffff1673ffffffffffffffffffffffffffffffffffffffff16815260200190815260200160002060006101000a81548160ff021916908315150217905550505056fea165627a7a723058205659e07797dff4d4bb99907549c84c845b3d1338d0982520a5a9f00267eb12b80029",
  "source": "pragma solidity ^0.5.0;\n\n// Import the library 'Roles'\nimport \"./Roles.sol\";\n\n// Define a contract 'SupermarketRole' to manage this role - add, remove, check\n\ncontract SupermarketRole {\n\n    // Define 2 events, one for Adding, and other for Removing\n    event SupermarketAdded(address indexed account);\n    event SupermarketRemoved(address indexed account);\n\n    // Define a struct 'superMarkets' by inheriting from 'Roles' library, struct Role\n    Roles.Role private superMarkets_;\n\n    // In the constructor make the address that deploys this contract the 1st superMarket\n    constructor() public {\n        _addSupermarket(msg.sender);\n    }\n\n    // Define a modifier that checks to see if msg.sender has the appropriate role\n    modifier onlySupermarket() {\n        require(isSupermarket(msg.sender));\n        _;\n    }\n\n    // Define a function 'isSupermarket' to check this role\n    function isSupermarket(address account) public view returns (bool) {\n        return Roles.has(superMarkets_, account);\n    }\n\n    // Define a function 'addSupermarket' that adds this role\n    function addSupermarket(address account) public onlySupermarket {\n        _addSupermarket(account);\n    }\n\n    // Define a function 'renounceSupermarket' to renounce this role\n    function renounceSupermarket() public {\n        _removeSupermarket(msg.sender);\n    }\n\n    // Define an internal function '_addSupermarket' to add this role, called by 'addSupermarket'\n    function _addSupermarket(address account) internal {\n        Roles.add(superMarkets_, account);\n        emit SupermarketAdded(account);\n    }\n\n    // Define an internal function '_removeSupermarket' to remove this role, called by 'removeSupermarket'\n    function _removeSupermarket(address account) internal {\n        Roles.remove(superMarkets_, account);\n        emit SupermarketRemoved(account);\n    }\n}\n",
  "sourcePath": "/Users/alex/Documents/dev/blockchain/bdnd/term2/project1/contracts/coffeeaccesscontrol/SupermarketRole.sol",
  "compiler": {
    "name": "solc",
    "version": "0.5.0+commit.1d4f565a.Emscripten.clang"
  },
  "schemaVersion": "3.0.6",
  "updatedAt": "2019-04-11T21:46:13.908Z",
  "devdoc": {
    "methods": {}
  },
  "userdoc": {
    "methods": {}
  }
}