{
  "contractName": "SupplyChain",
  "abi": [
    {
      "constant": false,
      "inputs": [],
      "name": "renounceSupermarket",
      "outputs": [],
      "payable": false,
      "stateMutability": "nonpayable",
      "type": "function"
    },
    {
      "constant": false,
      "inputs": [
        {
          "name": "account",
          "type": "address"
        }
      ],
      "name": "addShipper",
      "outputs": [],
      "payable": false,
      "stateMutability": "nonpayable",
      "type": "function"
    },
    {
      "constant": true,
      "inputs": [
        {
          "name": "account",
          "type": "address"
        }
      ],
      "name": "isCustomer",
      "outputs": [
        {
          "name": "",
          "type": "bool"
        }
      ],
      "payable": false,
      "stateMutability": "view",
      "type": "function"
    },
    {
      "constant": false,
      "inputs": [],
      "name": "renounceOwnership",
      "outputs": [],
      "payable": false,
      "stateMutability": "nonpayable",
      "type": "function"
    },
    {
      "constant": false,
      "inputs": [
        {
          "name": "account",
          "type": "address"
        }
      ],
      "name": "addFarmer",
      "outputs": [],
      "payable": false,
      "stateMutability": "nonpayable",
      "type": "function"
    },
    {
      "constant": false,
      "inputs": [],
      "name": "renounceFarmer",
      "outputs": [],
      "payable": false,
      "stateMutability": "nonpayable",
      "type": "function"
    },
    {
      "constant": true,
      "inputs": [],
      "name": "owner",
      "outputs": [
        {
          "name": "",
          "type": "address"
        }
      ],
      "payable": false,
      "stateMutability": "view",
      "type": "function"
    },
    {
      "constant": true,
      "inputs": [],
      "name": "isOwner",
      "outputs": [
        {
          "name": "",
          "type": "bool"
        }
      ],
      "payable": false,
      "stateMutability": "view",
      "type": "function"
    },
    {
      "constant": true,
      "inputs": [
        {
          "name": "account",
          "type": "address"
        }
      ],
      "name": "isSupermarket",
      "outputs": [
        {
          "name": "",
          "type": "bool"
        }
      ],
      "payable": false,
      "stateMutability": "view",
      "type": "function"
    },
    {
      "constant": false,
      "inputs": [],
      "name": "renounceCustomer",
      "outputs": [],
      "payable": false,
      "stateMutability": "nonpayable",
      "type": "function"
    },
    {
      "constant": false,
      "inputs": [
        {
          "name": "account",
          "type": "address"
        }
      ],
      "name": "addCustomer",
      "outputs": [],
      "payable": false,
      "stateMutability": "nonpayable",
      "type": "function"
    },
    {
      "constant": true,
      "inputs": [
        {
          "name": "account",
          "type": "address"
        }
      ],
      "name": "isFarmer",
      "outputs": [
        {
          "name": "",
          "type": "bool"
        }
      ],
      "payable": false,
      "stateMutability": "view",
      "type": "function"
    },
    {
      "constant": false,
      "inputs": [
        {
          "name": "account",
          "type": "address"
        }
      ],
      "name": "addSupermarket",
      "outputs": [],
      "payable": false,
      "stateMutability": "nonpayable",
      "type": "function"
    },
    {
      "constant": true,
      "inputs": [
        {
          "name": "account",
          "type": "address"
        }
      ],
      "name": "isShipper",
      "outputs": [
        {
          "name": "",
          "type": "bool"
        }
      ],
      "payable": false,
      "stateMutability": "view",
      "type": "function"
    },
    {
      "constant": false,
      "inputs": [],
      "name": "renounceShipper",
      "outputs": [],
      "payable": false,
      "stateMutability": "nonpayable",
      "type": "function"
    },
    {
      "constant": false,
      "inputs": [
        {
          "name": "newOwner",
          "type": "address"
        }
      ],
      "name": "transferOwnership",
      "outputs": [],
      "payable": false,
      "stateMutability": "nonpayable",
      "type": "function"
    },
    {
      "inputs": [],
      "payable": true,
      "stateMutability": "payable",
      "type": "constructor"
    },
    {
      "anonymous": false,
      "inputs": [
        {
          "indexed": false,
          "name": "_upc",
          "type": "uint256"
        }
      ],
      "name": "ReadyForHarvest",
      "type": "event"
    },
    {
      "anonymous": false,
      "inputs": [
        {
          "indexed": false,
          "name": "_upc",
          "type": "uint256"
        }
      ],
      "name": "Harvested",
      "type": "event"
    },
    {
      "anonymous": false,
      "inputs": [
        {
          "indexed": false,
          "name": "_upc",
          "type": "uint256"
        }
      ],
      "name": "ForSaleByFarmer",
      "type": "event"
    },
    {
      "anonymous": false,
      "inputs": [
        {
          "indexed": false,
          "name": "_upc",
          "type": "uint256"
        }
      ],
      "name": "SoldToBuyer",
      "type": "event"
    },
    {
      "anonymous": false,
      "inputs": [
        {
          "indexed": false,
          "name": "_upc",
          "type": "uint256"
        }
      ],
      "name": "TransferredToBuyer",
      "type": "event"
    },
    {
      "anonymous": false,
      "inputs": [
        {
          "indexed": false,
          "name": "_upc",
          "type": "uint256"
        }
      ],
      "name": "AwaitingShipping",
      "type": "event"
    },
    {
      "anonymous": false,
      "inputs": [
        {
          "indexed": false,
          "name": "_upc",
          "type": "uint256"
        }
      ],
      "name": "Shipping",
      "type": "event"
    },
    {
      "anonymous": false,
      "inputs": [
        {
          "indexed": false,
          "name": "_upc",
          "type": "uint256"
        }
      ],
      "name": "Shipped",
      "type": "event"
    },
    {
      "anonymous": false,
      "inputs": [
        {
          "indexed": false,
          "name": "_upc",
          "type": "uint256"
        }
      ],
      "name": "ForSaleByBuyer",
      "type": "event"
    },
    {
      "anonymous": false,
      "inputs": [
        {
          "indexed": false,
          "name": "_upc",
          "type": "uint256"
        }
      ],
      "name": "SoldToCustomer",
      "type": "event"
    },
    {
      "anonymous": false,
      "inputs": [
        {
          "indexed": true,
          "name": "account",
          "type": "address"
        }
      ],
      "name": "SupermarketAdded",
      "type": "event"
    },
    {
      "anonymous": false,
      "inputs": [
        {
          "indexed": true,
          "name": "account",
          "type": "address"
        }
      ],
      "name": "SupermarketRemoved",
      "type": "event"
    },
    {
      "anonymous": false,
      "inputs": [
        {
          "indexed": false,
          "name": "account",
          "type": "address"
        }
      ],
      "name": "ShipperAdded",
      "type": "event"
    },
    {
      "anonymous": false,
      "inputs": [
        {
          "indexed": false,
          "name": "account",
          "type": "address"
        }
      ],
      "name": "ShipperRemoved",
      "type": "event"
    },
    {
      "anonymous": false,
      "inputs": [
        {
          "indexed": true,
          "name": "account",
          "type": "address"
        }
      ],
      "name": "FarmerAdded",
      "type": "event"
    },
    {
      "anonymous": false,
      "inputs": [
        {
          "indexed": true,
          "name": "account",
          "type": "address"
        }
      ],
      "name": "FarmerRemoved",
      "type": "event"
    },
    {
      "anonymous": false,
      "inputs": [
        {
          "indexed": false,
          "name": "account",
          "type": "address"
        }
      ],
      "name": "CustomerAdded",
      "type": "event"
    },
    {
      "anonymous": false,
      "inputs": [
        {
          "indexed": false,
          "name": "account",
          "type": "address"
        }
      ],
      "name": "CustomerRemoved",
      "type": "event"
    },
    {
      "anonymous": false,
      "inputs": [
        {
          "indexed": true,
          "name": "oldOwner",
          "type": "address"
        },
        {
          "indexed": true,
          "name": "newOwner",
          "type": "address"
        }
      ],
      "name": "TransferOwnership",
      "type": "event"
    },
    {
      "constant": false,
      "inputs": [],
      "name": "kill",
      "outputs": [],
      "payable": false,
      "stateMutability": "nonpayable",
      "type": "function"
    },
    {
      "constant": false,
      "inputs": [
        {
          "name": "_upc",
          "type": "uint256"
        },
        {
          "name": "_originFarmerID",
          "type": "address"
        },
        {
          "name": "_originFarmName",
          "type": "string"
        },
        {
          "name": "_originFarmInformation",
          "type": "string"
        },
        {
          "name": "_originFarmLatitude",
          "type": "string"
        },
        {
          "name": "_originFarmLongitude",
          "type": "string"
        },
        {
          "name": "_productNotes",
          "type": "string"
        }
      ],
      "name": "prepareForHarvest",
      "outputs": [],
      "payable": false,
      "stateMutability": "nonpayable",
      "type": "function"
    },
    {
      "constant": false,
      "inputs": [
        {
          "name": "_upc",
          "type": "uint256"
        }
      ],
      "name": "harvestItem",
      "outputs": [],
      "payable": false,
      "stateMutability": "nonpayable",
      "type": "function"
    },
    {
      "constant": false,
      "inputs": [
        {
          "name": "_upc",
          "type": "uint256"
        },
        {
          "name": "price",
          "type": "uint256"
        }
      ],
      "name": "putUpForSale",
      "outputs": [],
      "payable": false,
      "stateMutability": "nonpayable",
      "type": "function"
    },
    {
      "constant": false,
      "inputs": [
        {
          "name": "_upc",
          "type": "uint256"
        }
      ],
      "name": "buyerBuysCoconuts",
      "outputs": [],
      "payable": true,
      "stateMutability": "payable",
      "type": "function"
    },
    {
      "constant": false,
      "inputs": [
        {
          "name": "_upc",
          "type": "uint256"
        }
      ],
      "name": "transferToBuyer",
      "outputs": [],
      "payable": false,
      "stateMutability": "nonpayable",
      "type": "function"
    },
    {
      "constant": false,
      "inputs": [
        {
          "name": "_upc",
          "type": "uint256"
        },
        {
          "name": "shipper",
          "type": "address"
        }
      ],
      "name": "submitShipment",
      "outputs": [],
      "payable": false,
      "stateMutability": "nonpayable",
      "type": "function"
    },
    {
      "constant": false,
      "inputs": [
        {
          "name": "_upc",
          "type": "uint256"
        }
      ],
      "name": "ship",
      "outputs": [],
      "payable": false,
      "stateMutability": "nonpayable",
      "type": "function"
    },
    {
      "constant": false,
      "inputs": [
        {
          "name": "_upc",
          "type": "uint256"
        }
      ],
      "name": "shipped",
      "outputs": [],
      "payable": false,
      "stateMutability": "nonpayable",
      "type": "function"
    },
    {
      "constant": false,
      "inputs": [
        {
          "name": "_upc",
          "type": "uint256"
        }
      ],
      "name": "forSaleByBuyer",
      "outputs": [],
      "payable": false,
      "stateMutability": "nonpayable",
      "type": "function"
    },
    {
      "constant": false,
      "inputs": [
        {
          "name": "_upc",
          "type": "uint256"
        }
      ],
      "name": "customerBuysCoconuts",
      "outputs": [],
      "payable": true,
      "stateMutability": "payable",
      "type": "function"
    },
    {
      "constant": true,
      "inputs": [
        {
          "name": "_upc",
          "type": "uint256"
        }
      ],
      "name": "fetchItemBufferOne",
      "outputs": [
        {
          "name": "itemSKU",
          "type": "uint256"
        },
        {
          "name": "itemUPC",
          "type": "uint256"
        },
        {
          "name": "ownerID",
          "type": "address"
        },
        {
          "name": "originFarmerID",
          "type": "address"
        },
        {
          "name": "originFarmName",
          "type": "string"
        },
        {
          "name": "originFarmInformation",
          "type": "string"
        },
        {
          "name": "originFarmLatitude",
          "type": "string"
        },
        {
          "name": "originFarmLongitude",
          "type": "string"
        }
      ],
      "payable": false,
      "stateMutability": "view",
      "type": "function"
    },
    {
      "constant": true,
      "inputs": [
        {
          "name": "_upc",
          "type": "uint256"
        }
      ],
      "name": "fetchItemBufferTwo",
      "outputs": [
        {
          "name": "itemSKU",
          "type": "uint256"
        },
        {
          "name": "itemUPC",
          "type": "uint256"
        },
        {
          "name": "productID",
          "type": "uint256"
        },
        {
          "name": "productNotes",
          "type": "string"
        },
        {
          "name": "productPrice",
          "type": "uint256"
        },
        {
          "name": "itemState",
          "type": "uint256"
        },
        {
          "name": "shipperID",
          "type": "address"
        },
        {
          "name": "superMarketID",
          "type": "address"
        },
        {
          "name": "customerID",
          "type": "address"
        }
      ],
      "payable": false,
      "stateMutability": "view",
      "type": "function"
    }
  ],
  "bytecode": "0x6080604052336000806101000a81548173ffffffffffffffffffffffffffffffffffffffff021916908373ffffffffffffffffffffffffffffffffffffffff1602179055506000809054906101000a900473ffffffffffffffffffffffffffffffffffffffff1673ffffffffffffffffffffffffffffffffffffffff16600073ffffffffffffffffffffffffffffffffffffffff167f5c486528ec3e3f0ea91181cff8116f02bfa350e03b8b6f12e00765adbb5af85c60405160405180910390a3620000da336200017f640100000000026401000000009004565b620000f43362000206640100000000026401000000009004565b6200010e336200026d640100000000026401000000009004565b6200012833620002f4640100000000026401000000009004565b33600560006101000a81548173ffffffffffffffffffffffffffffffffffffffff021916908373ffffffffffffffffffffffffffffffffffffffff16021790555060016007819055506001600681905550620004b3565b620001a06001826200035b6401000000000262002e2d176401000000009004565b7fcd118a02bd36f224f6f1b93812f78d2bbc2c2dc1bc0f60c176e3b4fe09f1483f81604051808273ffffffffffffffffffffffffffffffffffffffff1673ffffffffffffffffffffffffffffffffffffffff16815260200191505060405180910390a150565b620002276002826200035b6401000000000262002e2d176401000000009004565b8073ffffffffffffffffffffffffffffffffffffffff167f2e0ded4123377a3c2bc9a26f1717655a129e2f20752924d42e730ec89c83dbd060405160405180910390a250565b6200028e6003826200035b6401000000000262002e2d176401000000009004565b7fa6b0d643c10c5fda6645b77a5fb2e02bc2cbd3597d2a30910ca9f42db8b948ca81604051808273ffffffffffffffffffffffffffffffffffffffff1673ffffffffffffffffffffffffffffffffffffffff16815260200191505060405180910390a150565b620003156004826200035b6401000000000262002e2d176401000000009004565b8073ffffffffffffffffffffffffffffffffffffffff167f3e8b6c25714070dcebd930fe0d9592c40580e5afd0b4e8e3727181b801e733f560405160405180910390a250565b600073ffffffffffffffffffffffffffffffffffffffff168173ffffffffffffffffffffffffffffffffffffffff16141515156200039857600080fd5b620003b382826200041e640100000000026401000000009004565b151515620003c057600080fd5b60018260000160008373ffffffffffffffffffffffffffffffffffffffff1673ffffffffffffffffffffffffffffffffffffffff16815260200190815260200160002060006101000a81548160ff0219169083151502179055505050565b60008073ffffffffffffffffffffffffffffffffffffffff168273ffffffffffffffffffffffffffffffffffffffff16141515156200045c57600080fd5b8260000160008373ffffffffffffffffffffffffffffffffffffffff1673ffffffffffffffffffffffffffffffffffffffff16815260200190815260200160002060009054906101000a900460ff16905092915050565b612fae80620004c36000396000f3fe608060405260043610610175576000357c0100000000000000000000000000000000000000000000000000000000900463ffffffff1680630d9976881461017a57806314f6c371146101d5578063155a7646146101ec578063244f643b1461023d57806328fd5e8314610278578063333d6a43146102e157806339518d381461031c57806341c0e1b51461066a5780635e96c6941461068157806366225ff9146106c6578063715018a61461083657806377c459131461084d57806380c3f96d14610ab957806380fc0ce414610b0a57806382a9e7d314610b215780638da5cb5b14610b4f5780638f32d59b14610ba65780639bccc79e14610bd55780639f32db6014610c10578063a2d7e56114610c4b578063ac98e6db14610cb4578063ad973d7414610ccb578063ae3fc70214610d1c578063b942906914610d57578063c727c25e14610dc0578063d3fc786f14610dee578063d60c1d5514610e3f578063de9edc9f14610ea8578063f2fde38b14610ebf575b600080fd5b34801561018657600080fd5b506101d36004803603604081101561019d57600080fd5b8101908080359060200190929190803573ffffffffffffffffffffffffffffffffffffffff169060200190929190505050610f10565b005b3480156101e157600080fd5b506101ea61108b565b005b3480156101f857600080fd5b5061023b6004803603602081101561020f57600080fd5b81019080803573ffffffffffffffffffffffffffffffffffffffff169060200190929190505050611096565b005b34801561024957600080fd5b506102766004803603602081101561026057600080fd5b81019080803590602001909291905050506110b6565b005b34801561028457600080fd5b506102c76004803603602081101561029b57600080fd5b81019080803573ffffffffffffffffffffffffffffffffffffffff169060200190929190505050611186565b604051808215151515815260200191505060405180910390f35b3480156102ed57600080fd5b5061031a6004803603602081101561030457600080fd5b810190808035906020019092919050505061119a565b005b34801561032857600080fd5b50610668600480360360e081101561033f57600080fd5b8101908080359060200190929190803573ffffffffffffffffffffffffffffffffffffffff1690602001909291908035906020019064010000000081111561038657600080fd5b82018360208201111561039857600080fd5b803590602001918460018302840111640100000000831117156103ba57600080fd5b91908080601f016020809104026020016040519081016040528093929190818152602001838380828437600081840152601f19601f8201169050808301925050505050505091929192908035906020019064010000000081111561041d57600080fd5b82018360208201111561042f57600080fd5b8035906020019184600183028401116401000000008311171561045157600080fd5b91908080601f016020809104026020016040519081016040528093929190818152602001838380828437600081840152601f19601f820116905080830192505050505050509192919290803590602001906401000000008111156104b457600080fd5b8201836020820111156104c657600080fd5b803590602001918460018302840111640100000000831117156104e857600080fd5b91908080601f016020809104026020016040519081016040528093929190818152602001838380828437600081840152601f19601f8201169050808301925050505050505091929192908035906020019064010000000081111561054b57600080fd5b82018360208201111561055d57600080fd5b8035906020019184600183028401116401000000008311171561057f57600080fd5b91908080601f016020809104026020016040519081016040528093929190818152602001838380828437600081840152601f19601f820116905080830192505050505050509192919290803590602001906401000000008111156105e257600080fd5b8201836020820111156105f457600080fd5b8035906020019184600183028401116401000000008311171561061657600080fd5b91908080601f016020809104026020016040519081016040528093929190818152602001838380828437600081840152601f19601f82011690508083019250505050505050919291929050505061126a565b005b34801561067657600080fd5b5061067f61161f565b005b34801561068d57600080fd5b506106c4600480360360408110156106a457600080fd5b810190808035906020019092919080359060200190929190505050611696565b005b3480156106d257600080fd5b506106ff600480360360208110156106e957600080fd5b81019080803590602001909291905050506117fa565b604051808a8152602001898152602001888152602001806020018781526020018681526020018573ffffffffffffffffffffffffffffffffffffffff1673ffffffffffffffffffffffffffffffffffffffff1681526020018473ffffffffffffffffffffffffffffffffffffffff1673ffffffffffffffffffffffffffffffffffffffff1681526020018373ffffffffffffffffffffffffffffffffffffffff1673ffffffffffffffffffffffffffffffffffffffff168152602001828103825288818151815260200191508051906020019080838360005b838110156107f35780820151818401526020810190506107d8565b50505050905090810190601f1680156108205780820380516001836020036101000a031916815260200191505b509a505050505050505050505060405180910390f35b34801561084257600080fd5b5061084b611a0c565b005b34801561085957600080fd5b506108866004803603602081101561087057600080fd5b8101908080359060200190929190505050611b27565b604051808981526020018881526020018773ffffffffffffffffffffffffffffffffffffffff1673ffffffffffffffffffffffffffffffffffffffff1681526020018673ffffffffffffffffffffffffffffffffffffffff1673ffffffffffffffffffffffffffffffffffffffff16815260200180602001806020018060200180602001858103855289818151815260200191508051906020019080838360005b83811015610942578082015181840152602081019050610927565b50505050905090810190601f16801561096f5780820380516001836020036101000a031916815260200191505b50858103845288818151815260200191508051906020019080838360005b838110156109a857808201518184015260208101905061098d565b50505050905090810190601f1680156109d55780820380516001836020036101000a031916815260200191505b50858103835287818151815260200191508051906020019080838360005b83811015610a0e5780820151818401526020810190506109f3565b50505050905090810190601f168015610a3b5780820380516001836020036101000a031916815260200191505b50858103825286818151815260200191508051906020019080838360005b83811015610a74578082015181840152602081019050610a59565b50505050905090810190601f168015610aa15780820380516001836020036101000a031916815260200191505b509c5050505050505050505050505060405180910390f35b348015610ac557600080fd5b50610b0860048036036020811015610adc57600080fd5b81019080803573ffffffffffffffffffffffffffffffffffffffff169060200190929190505050611ea8565b005b348015610b1657600080fd5b50610b1f611ec8565b005b610b4d60048036036020811015610b3757600080fd5b8101908080359060200190929190505050611ed3565b005b348015610b5b57600080fd5b50610b64612182565b604051808273ffffffffffffffffffffffffffffffffffffffff1673ffffffffffffffffffffffffffffffffffffffff16815260200191505060405180910390f35b348015610bb257600080fd5b50610bbb6121ab565b604051808215151515815260200191505060405180910390f35b348015610be157600080fd5b50610c0e60048036036020811015610bf857600080fd5b8101908080359060200190929190505050612202565b005b348015610c1c57600080fd5b50610c4960048036036020811015610c3357600080fd5b8101908080359060200190929190505050612314565b005b348015610c5757600080fd5b50610c9a60048036036020811015610c6e57600080fd5b81019080803573ffffffffffffffffffffffffffffffffffffffff169060200190929190505050612439565b604051808215151515815260200191505060405180910390f35b348015610cc057600080fd5b50610cc961244d565b005b348015610cd757600080fd5b50610d1a60048036036020811015610cee57600080fd5b81019080803573ffffffffffffffffffffffffffffffffffffffff169060200190929190505050612458565b005b348015610d2857600080fd5b50610d5560048036036020811015610d3f57600080fd5b8101908080359060200190929190505050612478565b005b348015610d6357600080fd5b50610da660048036036020811015610d7a57600080fd5b81019080803573ffffffffffffffffffffffffffffffffffffffff1690602001909291905050506125d3565b604051808215151515815260200191505060405180910390f35b610dec60048036036020811015610dd657600080fd5b81019080803590602001909291905050506125e7565b005b348015610dfa57600080fd5b50610e3d60048036036020811015610e1157600080fd5b81019080803573ffffffffffffffffffffffffffffffffffffffff169060200190929190505050612841565b005b348015610e4b57600080fd5b50610e8e60048036036020811015610e6257600080fd5b81019080803573ffffffffffffffffffffffffffffffffffffffff169060200190929190505050612861565b604051808215151515815260200191505060405180910390f35b348015610eb457600080fd5b50610ebd612875565b005b348015610ecb57600080fd5b50610f0e60048036036020811015610ee257600080fd5b81019080803573ffffffffffffffffffffffffffffffffffffffff169060200190929190505050612880565b005b610f1933612439565b1515610f2457600080fd5b8160046009811115610f3257fe5b60086000838152602001908152602001600020600b0160009054906101000a900460ff166009811115610f6157fe5b141515610f6d57600080fd5b600560086000858152602001908152602001600020600b0160006101000a81548160ff02191690836009811115610fa057fe5b02179055508160086000858152602001908152602001600020600b0160016101000a81548173ffffffffffffffffffffffffffffffffffffffff021916908373ffffffffffffffffffffffffffffffffffffffff160217905550816008600085815260200190815260200160002060020160006101000a81548173ffffffffffffffffffffffffffffffffffffffff021916908373ffffffffffffffffffffffffffffffffffffffff1602179055507fdb957327915d5cd92f68273027fe8b1152de34dba69f428eed8c5e5baff20e36836040518082815260200191505060405180910390a1505050565b611094336128e8565b565b61109f33612861565b15156110aa57600080fd5b6110b381612939565b50565b6110bf33612861565b15156110ca57600080fd5b80600560098111156110d857fe5b60086000838152602001908152602001600020600b0160009054906101000a900460ff16600981111561110757fe5b14151561111357600080fd5b600660086000848152602001908152602001600020600b0160006101000a81548160ff0219169083600981111561114657fe5b02179055507f2670c31405517b484e31733e8ed7d2247cb77935fcf7f48b34f85c1c01d07ee0826040518082815260200191505060405180910390a15050565b60006111936001836129aa565b9050919050565b6111a3336125d3565b15156111ae57600080fd5b80600060098111156111bc57fe5b60086000838152602001908152602001600020600b0160009054906101000a900460ff1660098111156111eb57fe5b1415156111f757600080fd5b600160086000848152602001908152602001600020600b0160006101000a81548160ff0219169083600981111561122a57fe5b02179055507f8e55ccfc9778ff8eba1646d765cf1982537ce0f9257054a17b48aad745250183826040518082815260200191505060405180910390a15050565b611273336125d3565b151561127e57600080fd5b600060075461271089020190506101e06040519081016040528060075481526020018981526020013373ffffffffffffffffffffffffffffffffffffffff1681526020018873ffffffffffffffffffffffffffffffffffffffff168152602001878152602001868152602001858152602001848152602001828152602001838152602001600081526020016000600981111561131657fe5b8152602001600073ffffffffffffffffffffffffffffffffffffffff168152602001600073ffffffffffffffffffffffffffffffffffffffff168152602001600073ffffffffffffffffffffffffffffffffffffffff16815250600860008a8152602001908152602001600020600082015181600001556020820151816001015560408201518160020160006101000a81548173ffffffffffffffffffffffffffffffffffffffff021916908373ffffffffffffffffffffffffffffffffffffffff16021790555060608201518160030160006101000a81548173ffffffffffffffffffffffffffffffffffffffff021916908373ffffffffffffffffffffffffffffffffffffffff1602179055506080820151816004019080519060200190611441929190612edd565b5060a082015181600501908051906020019061145e929190612edd565b5060c082015181600601908051906020019061147b929190612edd565b5060e0820151816007019080519060200190611498929190612edd565b5061010082015181600801556101208201518160090190805190602001906114c1929190612edd565b5061014082015181600a015561016082015181600b0160006101000a81548160ff021916908360098111156114f257fe5b021790555061018082015181600b0160016101000a81548173ffffffffffffffffffffffffffffffffffffffff021916908373ffffffffffffffffffffffffffffffffffffffff1602179055506101a082015181600c0160006101000a81548173ffffffffffffffffffffffffffffffffffffffff021916908373ffffffffffffffffffffffffffffffffffffffff1602179055506101c082015181600d0160006101000a81548173ffffffffffffffffffffffffffffffffffffffff021916908373ffffffffffffffffffffffffffffffffffffffff1602179055509050506001600754016007819055507f662db5dacbef8430df8570e6d915159098fc6f08fc5ddd14d056f1048b359359886040518082815260200191505060405180910390a15050505050505050565b6000600560009054906101000a900473ffffffffffffffffffffffffffffffffffffffff1690508073ffffffffffffffffffffffffffffffffffffffff163373ffffffffffffffffffffffffffffffffffffffff161415611693578073ffffffffffffffffffffffffffffffffffffffff16ff5b50565b61169f336125d3565b15156116aa57600080fd5b81600160098111156116b857fe5b60086000838152602001908152602001600020600b0160009054906101000a900460ff1660098111156116e757fe5b1415156116f357600080fd5b60008211151561176b576040517f08c379a000000000000000000000000000000000000000000000000000000000815260040180806020018281038252600d8152602001807f496e76616c69642070726963650000000000000000000000000000000000000081525060200191505060405180910390fd5b600260086000858152602001908152602001600020600b0160006101000a81548160ff0219169083600981111561179e57fe5b02179055508160086000858152602001908152602001600020600a01819055507f7a02b5a0b1f928cffcafd0e750f369a40f124f4f34f65801fe1f0d945b9a7915836040518082815260200191505060405180910390a1505050565b600080600060606000806000806000600860008b8152602001908152602001600020600001549850899750600860008b8152602001908152602001600020600801549650600860008b81526020019081526020016000206009018054600181600116156101000203166002900480601f0160208091040260200160405190810160405280929190818152602001828054600181600116156101000203166002900480156118e85780601f106118bd576101008083540402835291602001916118e8565b820191906000526020600020905b8154815290600101906020018083116118cb57829003601f168201915b50505050509550600860008b8152602001908152602001600020600a01549450600860008b8152602001908152602001600020600b0160009054906101000a900460ff16600981111561193757fe5b9350600860008b8152602001908152602001600020600b0160019054906101000a900473ffffffffffffffffffffffffffffffffffffffff169250600860008b8152602001908152602001600020600c0160009054906101000a900473ffffffffffffffffffffffffffffffffffffffff169150600860008b8152602001908152602001600020600d0160009054906101000a900473ffffffffffffffffffffffffffffffffffffffff1690508888888888888888889850985098509850985098509850985098509193959799909294969850565b600560009054906101000a900473ffffffffffffffffffffffffffffffffffffffff1673ffffffffffffffffffffffffffffffffffffffff163373ffffffffffffffffffffffffffffffffffffffff16141515611a6857600080fd5b600073ffffffffffffffffffffffffffffffffffffffff166000809054906101000a900473ffffffffffffffffffffffffffffffffffffffff1673ffffffffffffffffffffffffffffffffffffffff167f5c486528ec3e3f0ea91181cff8116f02bfa350e03b8b6f12e00765adbb5af85c60405160405180910390a360008060006101000a81548173ffffffffffffffffffffffffffffffffffffffff021916908373ffffffffffffffffffffffffffffffffffffffff160217905550565b600080600080606080606080600860008a8152602001908152602001600020600001549750889650600860008a815260200190815260200160002060020160009054906101000a900473ffffffffffffffffffffffffffffffffffffffff169550600860008a815260200190815260200160002060030160009054906101000a900473ffffffffffffffffffffffffffffffffffffffff169450600860008a81526020019081526020016000206004018054600181600116156101000203166002900480601f016020809104026020016040519081016040528092919081815260200182805460018160011615610100020316600290048015611c6b5780601f10611c4057610100808354040283529160200191611c6b565b820191906000526020600020905b815481529060010190602001808311611c4e57829003601f168201915b50505050509350600860008a81526020019081526020016000206005018054600181600116156101000203166002900480601f016020809104026020016040519081016040528092919081815260200182805460018160011615610100020316600290048015611d1c5780601f10611cf157610100808354040283529160200191611d1c565b820191906000526020600020905b815481529060010190602001808311611cff57829003601f168201915b50505050509250600860008a81526020019081526020016000206006018054600181600116156101000203166002900480601f016020809104026020016040519081016040528092919081815260200182805460018160011615610100020316600290048015611dcd5780601f10611da257610100808354040283529160200191611dcd565b820191906000526020600020905b815481529060010190602001808311611db057829003601f168201915b50505050509150600860008a81526020019081526020016000206007018054600181600116156101000203166002900480601f016020809104026020016040519081016040528092919081815260200182805460018160011615610100020316600290048015611e7e5780601f10611e5357610100808354040283529160200191611e7e565b820191906000526020600020905b815481529060010190602001808311611e6157829003601f168201915b50505050509050878787878787878797509750975097509750975097509750919395975091939597565b611eb1336125d3565b1515611ebc57600080fd5b611ec581612a3e565b50565b611ed133612a8f565b565b611edc33611186565b1515611ee757600080fd5b8060086009811115611ef557fe5b60086000838152602001908152602001600020600b0160009054906101000a900460ff166009811115611f2457fe5b141515611f3057600080fd5b60086000838152602001908152602001600020600a0154803410151515611f5657600080fd5b8233600960086000878152602001908152602001600020600b0160006101000a81548160ff02191690836009811115611f8b57fe5b0217905550336008600087815260200190815260200160002060020160006101000a81548173ffffffffffffffffffffffffffffffffffffffff021916908373ffffffffffffffffffffffffffffffffffffffff1602179055503360086000878152602001908152602001600020600d0160006101000a81548173ffffffffffffffffffffffffffffffffffffffff021916908373ffffffffffffffffffffffffffffffffffffffff160217905550600060086000878152602001908152602001600020600c0160009054906101000a900473ffffffffffffffffffffffffffffffffffffffff1690508073ffffffffffffffffffffffffffffffffffffffff166108fc60086000898152602001908152602001600020600a01549081150290604051600060405180830381858888f193505050501580156120d1573d6000803e3d6000fd5b507ff3806dfa52c0c51e2721093e040da4d51ff9974aeeaff0f0a9c6a631aca0a20a866040518082815260200191505060405180910390a150600060086000848152602001908152602001600020600a015490506000813403905060008390508073ffffffffffffffffffffffffffffffffffffffff166108fc839081150290604051600060405180830381858888f19350505050158015612177573d6000803e3d6000fd5b505050505050505050565b60008060009054906101000a900473ffffffffffffffffffffffffffffffffffffffff16905090565b60008060009054906101000a900473ffffffffffffffffffffffffffffffffffffffff1673ffffffffffffffffffffffffffffffffffffffff163373ffffffffffffffffffffffffffffffffffffffff1614905090565b61220b33612439565b151561221657600080fd5b806007600981111561222457fe5b60086000838152602001908152602001600020600b0160009054906101000a900460ff16600981111561225357fe5b14151561225f57600080fd5b6008806000848152602001908152602001600020600b0160006101000a81548160ff0219169083600981111561229157fe5b02179055506064600a8115156122a357fe5b0460010160086000848152602001908152602001600020600a01540260086000848152602001908152602001600020600a01819055507ff4cf7f740cd60770636bf763f4bd9bfc6d9527b46596dcf42191b15d7524ee7c826040518082815260200191505060405180910390a15050565b61231d33612439565b151561232857600080fd5b806003600981111561233657fe5b60086000838152602001908152602001600020600b0160009054906101000a900460ff16600981111561236557fe5b14151561237157600080fd5b600460086000848152602001908152602001600020600b0160006101000a81548160ff021916908360098111156123a457fe5b0217905550336008600084815260200190815260200160002060020160006101000a81548173ffffffffffffffffffffffffffffffffffffffff021916908373ffffffffffffffffffffffffffffffffffffffff1602179055507ff244ad47b90b40cec71d64ca8ab8b0d77704fe22d67f676f1c02cf0cb9bbce61826040518082815260200191505060405180910390a15050565b60006124466004836129aa565b9050919050565b61245633612ae0565b565b61246133611186565b151561246c57600080fd5b61247581612b51565b50565b61248133612861565b151561248c57600080fd5b806006600981111561249a57fe5b60086000838152602001908152602001600020600b0160009054906101000a900460ff1660098111156124c957fe5b1415156124d557600080fd5b600760086000848152602001908152602001600020600b0160006101000a81548160ff0219169083600981111561250857fe5b021790555060086000838152602001908152602001600020600c0160009054906101000a900473ffffffffffffffffffffffffffffffffffffffff166008600084815260200190815260200160002060020160006101000a81548173ffffffffffffffffffffffffffffffffffffffff021916908373ffffffffffffffffffffffffffffffffffffffff1602179055507ff00b9a5725b80c54016f42114f6ed7792d22eecb116011c4afac29c57bef6c95826040518082815260200191505060405180910390a15050565b60006125e06002836129aa565b9050919050565b6125f033612439565b15156125fb57600080fd5b806002600981111561260957fe5b60086000838152602001908152602001600020600b0160009054906101000a900460ff16600981111561263857fe5b14151561264457600080fd5b60086000838152602001908152602001600020600a015480341015151561266a57600080fd5b8233600360086000878152602001908152602001600020600b0160006101000a81548160ff0219169083600981111561269f57fe5b02179055503360086000878152602001908152602001600020600c0160006101000a81548173ffffffffffffffffffffffffffffffffffffffff021916908373ffffffffffffffffffffffffffffffffffffffff16021790555060006008600087815260200190815260200160002060030160009054906101000a900473ffffffffffffffffffffffffffffffffffffffff1690508073ffffffffffffffffffffffffffffffffffffffff166108fc60086000898152602001908152602001600020600a01549081150290604051600060405180830381858888f19350505050158015612790573d6000803e3d6000fd5b507fdb064ca7284e7d41dd5dd86d72f373da176d110c558ef9e3d652ad49dc15df6a866040518082815260200191505060405180910390a150600060086000848152602001908152602001600020600a015490506000813403905060008390508073ffffffffffffffffffffffffffffffffffffffff166108fc839081150290604051600060405180830381858888f19350505050158015612836573d6000803e3d6000fd5b505050505050505050565b61284a33612439565b151561285557600080fd5b61285e81612bc2565b50565b600061286e6003836129aa565b9050919050565b61287e33612c13565b565b600560009054906101000a900473ffffffffffffffffffffffffffffffffffffffff1673ffffffffffffffffffffffffffffffffffffffff163373ffffffffffffffffffffffffffffffffffffffff161415156128dc57600080fd5b6128e581612c84565b50565b6128f3600482612d7e565b8073ffffffffffffffffffffffffffffffffffffffff167f15d2b381eb4092b28724b6b0527f13de7431b61db9e6f8ad6c171c35afbfb54460405160405180910390a250565b612944600382612e2d565b7fa6b0d643c10c5fda6645b77a5fb2e02bc2cbd3597d2a30910ca9f42db8b948ca81604051808273ffffffffffffffffffffffffffffffffffffffff1673ffffffffffffffffffffffffffffffffffffffff16815260200191505060405180910390a150565b60008073ffffffffffffffffffffffffffffffffffffffff168273ffffffffffffffffffffffffffffffffffffffff16141515156129e757600080fd5b8260000160008373ffffffffffffffffffffffffffffffffffffffff1673ffffffffffffffffffffffffffffffffffffffff16815260200190815260200160002060009054906101000a900460ff16905092915050565b612a49600282612e2d565b8073ffffffffffffffffffffffffffffffffffffffff167f2e0ded4123377a3c2bc9a26f1717655a129e2f20752924d42e730ec89c83dbd060405160405180910390a250565b612a9a600282612d7e565b8073ffffffffffffffffffffffffffffffffffffffff167fa5e0f060af304ab17dd418c7927e3da3ae7868189bf387aee09ab179ccc572f260405160405180910390a250565b612aeb600182612d7e565b7fb4c88a9c5cd906354abdd1cc29e4f94c6c4de90754fb80ce51e6a33417bc81b681604051808273ffffffffffffffffffffffffffffffffffffffff1673ffffffffffffffffffffffffffffffffffffffff16815260200191505060405180910390a150565b612b5c600182612e2d565b7fcd118a02bd36f224f6f1b93812f78d2bbc2c2dc1bc0f60c176e3b4fe09f1483f81604051808273ffffffffffffffffffffffffffffffffffffffff1673ffffffffffffffffffffffffffffffffffffffff16815260200191505060405180910390a150565b612bcd600482612e2d565b8073ffffffffffffffffffffffffffffffffffffffff167f3e8b6c25714070dcebd930fe0d9592c40580e5afd0b4e8e3727181b801e733f560405160405180910390a250565b612c1e600382612d7e565b7f4098c33ee7259bdc6331fa574feb5904acfe84b01ace83ede4bc77e2d3ad673881604051808273ffffffffffffffffffffffffffffffffffffffff1673ffffffffffffffffffffffffffffffffffffffff16815260200191505060405180910390a150565b600073ffffffffffffffffffffffffffffffffffffffff168173ffffffffffffffffffffffffffffffffffffffff1614151515612cc057600080fd5b8073ffffffffffffffffffffffffffffffffffffffff166000809054906101000a900473ffffffffffffffffffffffffffffffffffffffff1673ffffffffffffffffffffffffffffffffffffffff167f5c486528ec3e3f0ea91181cff8116f02bfa350e03b8b6f12e00765adbb5af85c60405160405180910390a3806000806101000a81548173ffffffffffffffffffffffffffffffffffffffff021916908373ffffffffffffffffffffffffffffffffffffffff16021790555050565b600073ffffffffffffffffffffffffffffffffffffffff168173ffffffffffffffffffffffffffffffffffffffff1614151515612dba57600080fd5b612dc482826129aa565b1515612dcf57600080fd5b60008260000160008373ffffffffffffffffffffffffffffffffffffffff1673ffffffffffffffffffffffffffffffffffffffff16815260200190815260200160002060006101000a81548160ff0219169083151502179055505050565b600073ffffffffffffffffffffffffffffffffffffffff168173ffffffffffffffffffffffffffffffffffffffff1614151515612e6957600080fd5b612e7382826129aa565b151515612e7f57600080fd5b60018260000160008373ffffffffffffffffffffffffffffffffffffffff1673ffffffffffffffffffffffffffffffffffffffff16815260200190815260200160002060006101000a81548160ff0219169083151502179055505050565b828054600181600116156101000203166002900490600052602060002090601f016020900481019282601f10612f1e57805160ff1916838001178555612f4c565b82800160010185558215612f4c579182015b82811115612f4b578251825591602001919060010190612f30565b5b509050612f599190612f5d565b5090565b612f7f91905b80821115612f7b576000816000905550600101612f63565b5090565b9056fea165627a7a723058204c23abbd5efcc9ec64777194054450e63e31874d468f787168d970d372a2a3b90029",
  "source": "pragma solidity ^0.5.0;\n// Define a contract 'Supplychain'\n\nimport \"../coffeeaccesscontrol/CustomerRole.sol\";\nimport \"../coffeeaccesscontrol/FarmerRole.sol\";\nimport \"../coffeeaccesscontrol/ShipperRole.sol\";\nimport \"../coffeeaccesscontrol/SupermarketRole.sol\";\nimport \"../coffeecore/Ownable.sol\";\n\n\ncontract SupplyChain is Ownable, CustomerRole, FarmerRole, ShipperRole, SupermarketRole {\n\n    // Define 'owner'\n    address owner_;\n\n    // Define a variable called 'upc' for Universal Product Code (UPC)\n    uint  upc;\n\n    // Define a variable called 'sku' for Stock Keeping Unit (SKU)\n    uint  sku;\n\n    // Define a public mapping 'items' that maps the UPC to an CoconutUnit.\n    mapping (uint => CoconutUnit) items;\n\n    // Define a public mapping 'itemsHistory' that maps the UPC to an array of TxHash,\n    // that track its journey through the supply chain -- to be sent from DApp.\n    mapping (uint => string[]) itemsHistory;\n\n    // Define enum 'State' with the following values:\n    enum State {\n        ReadyForHarvest, // 0\n        Harvested,\n        ForSaleByFarmer,\n        SoldToBuyer,\n        TransferredToBuyer,\n        AwaitingShipping,\n        Shipping,\n        Shipped,\n        ForSaleByBuyer,\n        SoldToCustomer\n    }\n\n    State private constant DEFAULT_STATE = State.ReadyForHarvest;\n\n    uint private constant MARKUP_FACTOR = 10;\n\n    // Define a struct 'Item' with the following fields:\n    struct CoconutUnit {\n        uint    sku;  // Stock Keeping Unit (SKU)\n        uint    upc; // Universal Product Code (UPC), generated by the Farmer, goes on the package, can be verified by the Customer\n        address ownerID;  // Metamask-Ethereum address of the current owner as the product moves through the stages\n        address originFarmerID; // Metamask-Ethereum address of the Farmer\n        string  originFarmName; // Farmer Name\n        string  originFarmInformation;  // Farmer Information\n        string  originFarmLatitude; // Farm Latitude\n        string  originFarmLongitude;  // Farm Longitude\n        uint    productID;  // Product ID potentially a combination of upc + sku\n        string  productNotes; // Product Notes\n        uint    productPrice; // Product Price\n        State   itemState;  // Product State as represented in the enum above\n        address shipperID;  // Metamask-Ethereum address of the Shipper\n        address superMarketID; // Metamask-Ethereum address of the Supermarket\n        address customerID; // Metamask-Ethereum address of the Customer\n    }\n\n    event ReadyForHarvest(uint _upc);\n    event Harvested(uint _upc);\n    event ForSaleByFarmer(uint _upc);\n    event SoldToBuyer(uint _upc);\n    event TransferredToBuyer(uint _upc);\n    event AwaitingShipping(uint _upc);\n    event Shipping(uint _upc);\n    event Shipped(uint _upc);\n    event ForSaleByBuyer(uint _upc);\n    event SoldToCustomer(uint _upc);\n\n    // Define a modifer that checks to see if msg.sender == owner of the contract\n    modifier onlyOwner() {\n        require(msg.sender == owner_);\n        _;\n    }\n\n    // Define a modifer that verifies the Caller\n    modifier verifyCaller (address _address) {\n        require(msg.sender == _address);\n        _;\n    }\n\n    // Define a modifier that checks if the paid amount is sufficient to cover the price\n    modifier paidEnough(uint _price) {\n        require(msg.value >= _price);\n        _;\n    }\n\n    // Define a modifier that checks the price and refunds the remaining balance\n    modifier refundChange(uint _upc, address recepient) {\n        _;\n        uint _price = items[_upc].productPrice;\n        uint amountToReturn = msg.value - _price;\n        address payable payAddr = address(uint160(recepient));\n        payAddr.transfer(amountToReturn);\n    }\n\n    modifier readyForHarvest(uint _upc) {\n        require(items[_upc].itemState == State.ReadyForHarvest);\n        _;\n    }\n\n    // Define a modifier that checks if an item.state of a upc is Harvested\n    modifier harvested(uint _upc) {\n        require(items[_upc].itemState == State.Harvested);\n        _;\n    }\n\n    modifier forSaleByFarmer(uint _upc) {\n        require(items[_upc].itemState == State.ForSaleByFarmer);\n        _;\n    }\n\n    modifier soldToBuyer(uint _upc) {\n        require(items[_upc].itemState == State.SoldToBuyer);\n        _;\n    }\n\n    modifier transferredToBuyer(uint _upc) {\n        require(items[_upc].itemState == State.TransferredToBuyer);\n        _;\n    }\n\n    modifier awaitingShipping(uint _upc) {\n        require(items[_upc].itemState == State.AwaitingShipping);\n        _;\n    }\n\n    modifier shipping(uint _upc) {\n        require(items[_upc].itemState == State.Shipping);\n        _;\n    }\n\n    modifier isShipped(uint _upc) {\n        require(items[_upc].itemState == State.Shipped);\n        _;\n    }\n\n    modifier isForSaleByBuyer(uint _upc) {\n        require(items[_upc].itemState == State.ForSaleByBuyer);\n        _;\n    }\n\n    modifier soldToCustomer(uint _upc) {\n        require(items[_upc].itemState == State.SoldToCustomer);\n        _;\n    }\n\n    // In the constructor set 'owner' to the address that instantiated the contract\n    // and set 'sku' to 1\n    // and set 'upc' to 1\n    constructor() public payable {\n        owner_ = msg.sender;\n        sku = 1;\n        upc = 1;\n    }\n\n    // Define a function 'kill' if required\n    function kill() public {\n        address payable addr = address(uint160(owner_));\n        if (msg.sender == addr) {\n            selfdestruct(addr);\n        }\n    }\n\n    function prepareForHarvest(uint _upc, address _originFarmerID, string memory _originFarmName,\n        string memory _originFarmInformation,\n        string  memory _originFarmLatitude, string  memory _originFarmLongitude, string memory _productNotes)\n        public\n        onlyFarmer\n    {\n        uint prodId = _upc * 10000 + sku;\n        items[_upc] = CoconutUnit(sku, _upc, msg.sender, _originFarmerID, _originFarmName, _originFarmInformation,\n        _originFarmLatitude, _originFarmLongitude, prodId, _productNotes, 0, DEFAULT_STATE, address(0), address(0), address(0));\n        sku = sku + 1;\n        emit ReadyForHarvest(_upc);\n    }\n\n    // Define a function 'harvestItem' that allows a farmer to mark an item 'Harvested'\n    function harvestItem(uint _upc)\n        public\n        onlyFarmer\n        readyForHarvest(_upc)\n    {\n        items[_upc].itemState = State.Harvested;\n        emit Harvested(_upc);\n    }\n\n    function putUpForSale(uint _upc, uint price)\n        public\n        onlyFarmer\n        harvested(_upc)\n    {\n        require(price > 0, \"Invalid price\");\n        items[_upc].itemState = State.ForSaleByFarmer;\n        items[_upc].productPrice = price;\n        emit ForSaleByFarmer(_upc);\n    }\n\n    function buyerBuysCoconuts(uint _upc)\n        public\n        onlySupermarket\n        forSaleByFarmer(_upc)\n        payable\n        paidEnough(items[_upc].productPrice)\n        refundChange(_upc, msg.sender)\n    {\n        items[_upc].itemState = State.SoldToBuyer;\n        items[_upc].superMarketID = msg.sender;\n        address payable payAddr = address(uint160(items[_upc].originFarmerID));\n        payAddr.transfer(items[_upc].productPrice);\n        emit SoldToBuyer(_upc);\n    }\n\n    function transferToBuyer(uint _upc)\n    public\n    onlySupermarket\n    soldToBuyer(_upc)\n    {\n        items[_upc].itemState = State.TransferredToBuyer;\n        items[_upc].ownerID = msg.sender;\n        emit TransferredToBuyer(_upc);\n    }\n\n    function submitShipment(uint _upc, address shipper)\n    public\n    onlySupermarket\n    transferredToBuyer(_upc)\n    {\n        items[_upc].itemState = State.AwaitingShipping;\n        items[_upc].shipperID = shipper;\n        items[_upc].ownerID = shipper;\n        emit AwaitingShipping(_upc);\n    }\n\n    function ship(uint _upc)\n    public\n    onlyShipper\n    awaitingShipping(_upc)\n    {\n        items[_upc].itemState = State.Shipping;\n        emit Shipping(_upc);\n    }\n\n    function shipped(uint _upc)\n    public\n    onlyShipper\n    shipping(_upc)\n    {\n        items[_upc].itemState = State.Shipped;\n        items[_upc].ownerID = items[_upc].superMarketID;\n        emit Shipped(_upc);\n    }\n\n    function forSaleByBuyer(uint _upc)\n    public\n    onlySupermarket\n    isShipped(_upc)\n    {\n        items[_upc].itemState = State.ForSaleByBuyer;\n        items[_upc].productPrice = items[_upc].productPrice * (1 + (MARKUP_FACTOR / 100));\n        emit ForSaleByBuyer(_upc);\n    }\n\n    function customerBuysCoconuts(uint _upc)\n        public\n        onlyCustomer\n        isForSaleByBuyer(_upc)\n        payable\n        paidEnough(items[_upc].productPrice)\n        refundChange(_upc, msg.sender)\n    {\n        items[_upc].itemState = State.SoldToCustomer;\n        items[_upc].ownerID = msg.sender;\n        items[_upc].customerID = msg.sender;\n        address payable payAddr = address(uint160(items[_upc].superMarketID));\n        payAddr.transfer(items[_upc].productPrice);\n        emit SoldToCustomer(_upc);\n    }\n\n    function fetchItemBufferOne(uint _upc) public view returns\n    (\n        uint    itemSKU,\n        uint    itemUPC,\n        address ownerID,\n        address originFarmerID,\n        string  memory originFarmName,\n        string  memory originFarmInformation,\n        string  memory originFarmLatitude,\n        string  memory originFarmLongitude\n    )\n    {\n        itemSKU = items[_upc].sku;\n        itemUPC = _upc;\n        ownerID = items[_upc].ownerID;\n        originFarmerID = items[_upc].originFarmerID;\n        originFarmName = items[_upc].originFarmName;\n        originFarmInformation = items[_upc].originFarmInformation;\n        originFarmLatitude = items[_upc].originFarmLatitude;\n        originFarmLongitude = items[_upc].originFarmLongitude;\n\n        return\n        (\n            itemSKU,\n            itemUPC,\n            ownerID,\n            originFarmerID,\n            originFarmName,\n            originFarmInformation,\n            originFarmLatitude,\n            originFarmLongitude\n        );\n    }\n\n    // Define a function 'fetchItemBufferTwo' that fetches the data\n    function fetchItemBufferTwo(uint _upc) public view returns\n    (\n        uint    itemSKU,\n        uint    itemUPC,\n        uint    productID,\n        string  memory productNotes,\n        uint    productPrice,\n        uint    itemState,\n        address shipperID,\n        address superMarketID,\n        address customerID\n    )\n    {\n        itemSKU = items[_upc].sku;\n        itemUPC = _upc;\n        productID = items[_upc].productID;\n        productNotes = items[_upc].productNotes;\n        productPrice = items[_upc].productPrice;\n        itemState = uint(items[_upc].itemState);\n        shipperID = items[_upc].shipperID;\n        superMarketID = items[_upc].superMarketID;\n        customerID = items[_upc].customerID;\n\n        return\n        (\n            itemSKU,\n            itemUPC,\n            productID,\n            productNotes,\n            productPrice,\n            itemState,\n            shipperID,\n            superMarketID,\n            customerID\n        );\n    }\n\n}\n",
  "sourcePath": "/Users/alex/Documents/dev/blockchain/bdnd/term2/project1/contracts/coffeebase/SupplyChain.sol",
  "compiler": {
    "name": "solc",
    "version": "0.5.0+commit.1d4f565a.Emscripten.clang"
  },
  "schemaVersion": "3.0.6",
  "updatedAt": "2019-04-11T21:46:13.908Z",
  "devdoc": {
    "methods": {}
  },
  "userdoc": {
    "methods": {
      "isOwner()": {
        "notice": "Check if the calling address is the owner of the contract"
      },
      "owner()": {
        "notice": "Look up the address of the owner"
      },
      "renounceOwnership()": {
        "notice": "Define a function to renounce ownerhip"
      },
      "transferOwnership(address)": {
        "notice": "Define a public function to transfer ownership"
      }
    }
  }
}