{
  "contractName": "SupplyChain",
  "abi": [
    {
      "constant": false,
      "inputs": [],
      "name": "renounceSupermarket",
      "outputs": [],
      "payable": false,
      "stateMutability": "nonpayable",
      "type": "function",
      "signature": "0x14f6c371"
    },
    {
      "constant": false,
      "inputs": [
        {
          "name": "account",
          "type": "address"
        }
      ],
      "name": "addShipper",
      "outputs": [],
      "payable": false,
      "stateMutability": "nonpayable",
      "type": "function",
      "signature": "0x155a7646"
    },
    {
      "constant": true,
      "inputs": [
        {
          "name": "account",
          "type": "address"
        }
      ],
      "name": "isCustomer",
      "outputs": [
        {
          "name": "",
          "type": "bool"
        }
      ],
      "payable": false,
      "stateMutability": "view",
      "type": "function",
      "signature": "0x28fd5e83"
    },
    {
      "constant": false,
      "inputs": [],
      "name": "renounceOwnership",
      "outputs": [],
      "payable": false,
      "stateMutability": "nonpayable",
      "type": "function",
      "signature": "0x715018a6"
    },
    {
      "constant": false,
      "inputs": [
        {
          "name": "account",
          "type": "address"
        }
      ],
      "name": "addFarmer",
      "outputs": [],
      "payable": false,
      "stateMutability": "nonpayable",
      "type": "function",
      "signature": "0x80c3f96d"
    },
    {
      "constant": false,
      "inputs": [],
      "name": "renounceFarmer",
      "outputs": [],
      "payable": false,
      "stateMutability": "nonpayable",
      "type": "function",
      "signature": "0x80fc0ce4"
    },
    {
      "constant": true,
      "inputs": [],
      "name": "owner",
      "outputs": [
        {
          "name": "",
          "type": "address"
        }
      ],
      "payable": false,
      "stateMutability": "view",
      "type": "function",
      "signature": "0x8da5cb5b"
    },
    {
      "constant": true,
      "inputs": [],
      "name": "isOwner",
      "outputs": [
        {
          "name": "",
          "type": "bool"
        }
      ],
      "payable": false,
      "stateMutability": "view",
      "type": "function",
      "signature": "0x8f32d59b"
    },
    {
      "constant": true,
      "inputs": [
        {
          "name": "account",
          "type": "address"
        }
      ],
      "name": "isSupermarket",
      "outputs": [
        {
          "name": "",
          "type": "bool"
        }
      ],
      "payable": false,
      "stateMutability": "view",
      "type": "function",
      "signature": "0xa2d7e561"
    },
    {
      "constant": false,
      "inputs": [],
      "name": "renounceCustomer",
      "outputs": [],
      "payable": false,
      "stateMutability": "nonpayable",
      "type": "function",
      "signature": "0xac98e6db"
    },
    {
      "constant": false,
      "inputs": [
        {
          "name": "account",
          "type": "address"
        }
      ],
      "name": "addCustomer",
      "outputs": [],
      "payable": false,
      "stateMutability": "nonpayable",
      "type": "function",
      "signature": "0xad973d74"
    },
    {
      "constant": true,
      "inputs": [
        {
          "name": "account",
          "type": "address"
        }
      ],
      "name": "isFarmer",
      "outputs": [
        {
          "name": "",
          "type": "bool"
        }
      ],
      "payable": false,
      "stateMutability": "view",
      "type": "function",
      "signature": "0xb9429069"
    },
    {
      "constant": false,
      "inputs": [
        {
          "name": "account",
          "type": "address"
        }
      ],
      "name": "addSupermarket",
      "outputs": [],
      "payable": false,
      "stateMutability": "nonpayable",
      "type": "function",
      "signature": "0xd3fc786f"
    },
    {
      "constant": true,
      "inputs": [
        {
          "name": "account",
          "type": "address"
        }
      ],
      "name": "isShipper",
      "outputs": [
        {
          "name": "",
          "type": "bool"
        }
      ],
      "payable": false,
      "stateMutability": "view",
      "type": "function",
      "signature": "0xd60c1d55"
    },
    {
      "constant": false,
      "inputs": [],
      "name": "renounceShipper",
      "outputs": [],
      "payable": false,
      "stateMutability": "nonpayable",
      "type": "function",
      "signature": "0xde9edc9f"
    },
    {
      "constant": false,
      "inputs": [
        {
          "name": "newOwner",
          "type": "address"
        }
      ],
      "name": "transferOwnership",
      "outputs": [],
      "payable": false,
      "stateMutability": "nonpayable",
      "type": "function",
      "signature": "0xf2fde38b"
    },
    {
      "inputs": [],
      "payable": true,
      "stateMutability": "payable",
      "type": "constructor",
      "signature": "constructor"
    },
    {
      "anonymous": false,
      "inputs": [
        {
          "indexed": false,
          "name": "_upc",
          "type": "uint256"
        }
      ],
      "name": "ReadyForHarvest",
      "type": "event",
      "signature": "0x662db5dacbef8430df8570e6d915159098fc6f08fc5ddd14d056f1048b359359"
    },
    {
      "anonymous": false,
      "inputs": [
        {
          "indexed": false,
          "name": "_upc",
          "type": "uint256"
        }
      ],
      "name": "Harvested",
      "type": "event",
      "signature": "0x8e55ccfc9778ff8eba1646d765cf1982537ce0f9257054a17b48aad745250183"
    },
    {
      "anonymous": false,
      "inputs": [
        {
          "indexed": false,
          "name": "_upc",
          "type": "uint256"
        }
      ],
      "name": "ForSaleByFarmer",
      "type": "event",
      "signature": "0x7a02b5a0b1f928cffcafd0e750f369a40f124f4f34f65801fe1f0d945b9a7915"
    },
    {
      "anonymous": false,
      "inputs": [
        {
          "indexed": false,
          "name": "_upc",
          "type": "uint256"
        }
      ],
      "name": "SoldToBuyer",
      "type": "event",
      "signature": "0xdb064ca7284e7d41dd5dd86d72f373da176d110c558ef9e3d652ad49dc15df6a"
    },
    {
      "anonymous": false,
      "inputs": [
        {
          "indexed": false,
          "name": "_upc",
          "type": "uint256"
        }
      ],
      "name": "TransferredToBuyer",
      "type": "event",
      "signature": "0xf244ad47b90b40cec71d64ca8ab8b0d77704fe22d67f676f1c02cf0cb9bbce61"
    },
    {
      "anonymous": false,
      "inputs": [
        {
          "indexed": false,
          "name": "_upc",
          "type": "uint256"
        }
      ],
      "name": "AwaitingShipping",
      "type": "event",
      "signature": "0xdb957327915d5cd92f68273027fe8b1152de34dba69f428eed8c5e5baff20e36"
    },
    {
      "anonymous": false,
      "inputs": [
        {
          "indexed": false,
          "name": "_upc",
          "type": "uint256"
        }
      ],
      "name": "Shipping",
      "type": "event",
      "signature": "0x2670c31405517b484e31733e8ed7d2247cb77935fcf7f48b34f85c1c01d07ee0"
    },
    {
      "anonymous": false,
      "inputs": [
        {
          "indexed": false,
          "name": "_upc",
          "type": "uint256"
        }
      ],
      "name": "Shipped",
      "type": "event",
      "signature": "0xf00b9a5725b80c54016f42114f6ed7792d22eecb116011c4afac29c57bef6c95"
    },
    {
      "anonymous": false,
      "inputs": [
        {
          "indexed": false,
          "name": "_upc",
          "type": "uint256"
        }
      ],
      "name": "ForSaleByBuyer",
      "type": "event",
      "signature": "0xf4cf7f740cd60770636bf763f4bd9bfc6d9527b46596dcf42191b15d7524ee7c"
    },
    {
      "anonymous": false,
      "inputs": [
        {
          "indexed": false,
          "name": "_upc",
          "type": "uint256"
        }
      ],
      "name": "SoldToCustomer",
      "type": "event",
      "signature": "0xf3806dfa52c0c51e2721093e040da4d51ff9974aeeaff0f0a9c6a631aca0a20a"
    },
    {
      "anonymous": false,
      "inputs": [
        {
          "indexed": true,
          "name": "account",
          "type": "address"
        }
      ],
      "name": "SupermarketAdded",
      "type": "event",
      "signature": "0x3e8b6c25714070dcebd930fe0d9592c40580e5afd0b4e8e3727181b801e733f5"
    },
    {
      "anonymous": false,
      "inputs": [
        {
          "indexed": true,
          "name": "account",
          "type": "address"
        }
      ],
      "name": "SupermarketRemoved",
      "type": "event",
      "signature": "0x15d2b381eb4092b28724b6b0527f13de7431b61db9e6f8ad6c171c35afbfb544"
    },
    {
      "anonymous": false,
      "inputs": [
        {
          "indexed": false,
          "name": "account",
          "type": "address"
        }
      ],
      "name": "ShipperAdded",
      "type": "event",
      "signature": "0xa6b0d643c10c5fda6645b77a5fb2e02bc2cbd3597d2a30910ca9f42db8b948ca"
    },
    {
      "anonymous": false,
      "inputs": [
        {
          "indexed": false,
          "name": "account",
          "type": "address"
        }
      ],
      "name": "ShipperRemoved",
      "type": "event",
      "signature": "0x4098c33ee7259bdc6331fa574feb5904acfe84b01ace83ede4bc77e2d3ad6738"
    },
    {
      "anonymous": false,
      "inputs": [
        {
          "indexed": true,
          "name": "account",
          "type": "address"
        }
      ],
      "name": "FarmerAdded",
      "type": "event",
      "signature": "0x2e0ded4123377a3c2bc9a26f1717655a129e2f20752924d42e730ec89c83dbd0"
    },
    {
      "anonymous": false,
      "inputs": [
        {
          "indexed": true,
          "name": "account",
          "type": "address"
        }
      ],
      "name": "FarmerRemoved",
      "type": "event",
      "signature": "0xa5e0f060af304ab17dd418c7927e3da3ae7868189bf387aee09ab179ccc572f2"
    },
    {
      "anonymous": false,
      "inputs": [
        {
          "indexed": false,
          "name": "account",
          "type": "address"
        }
      ],
      "name": "CustomerAdded",
      "type": "event",
      "signature": "0xcd118a02bd36f224f6f1b93812f78d2bbc2c2dc1bc0f60c176e3b4fe09f1483f"
    },
    {
      "anonymous": false,
      "inputs": [
        {
          "indexed": false,
          "name": "account",
          "type": "address"
        }
      ],
      "name": "CustomerRemoved",
      "type": "event",
      "signature": "0xb4c88a9c5cd906354abdd1cc29e4f94c6c4de90754fb80ce51e6a33417bc81b6"
    },
    {
      "anonymous": false,
      "inputs": [
        {
          "indexed": true,
          "name": "oldOwner",
          "type": "address"
        },
        {
          "indexed": true,
          "name": "newOwner",
          "type": "address"
        }
      ],
      "name": "TransferOwnership",
      "type": "event",
      "signature": "0x5c486528ec3e3f0ea91181cff8116f02bfa350e03b8b6f12e00765adbb5af85c"
    },
    {
      "constant": false,
      "inputs": [],
      "name": "kill",
      "outputs": [],
      "payable": false,
      "stateMutability": "nonpayable",
      "type": "function",
      "signature": "0x41c0e1b5"
    },
    {
      "constant": false,
      "inputs": [
        {
          "name": "_upc",
          "type": "uint256"
        },
        {
          "name": "_originFarmerID",
          "type": "address"
        },
        {
          "name": "_originFarmName",
          "type": "string"
        },
        {
          "name": "_originFarmInformation",
          "type": "string"
        },
        {
          "name": "_originFarmLatitude",
          "type": "string"
        },
        {
          "name": "_originFarmLongitude",
          "type": "string"
        },
        {
          "name": "_productNotes",
          "type": "string"
        }
      ],
      "name": "prepareForHarvest",
      "outputs": [],
      "payable": false,
      "stateMutability": "nonpayable",
      "type": "function",
      "signature": "0x39518d38"
    },
    {
      "constant": false,
      "inputs": [
        {
          "name": "_upc",
          "type": "uint256"
        }
      ],
      "name": "harvestItem",
      "outputs": [],
      "payable": false,
      "stateMutability": "nonpayable",
      "type": "function",
      "signature": "0x333d6a43"
    },
    {
      "constant": false,
      "inputs": [
        {
          "name": "_upc",
          "type": "uint256"
        },
        {
          "name": "price",
          "type": "uint256"
        }
      ],
      "name": "putUpForSale",
      "outputs": [],
      "payable": false,
      "stateMutability": "nonpayable",
      "type": "function",
      "signature": "0x5e96c694"
    },
    {
      "constant": false,
      "inputs": [
        {
          "name": "_upc",
          "type": "uint256"
        }
      ],
      "name": "buyerBuysCoconuts",
      "outputs": [],
      "payable": true,
      "stateMutability": "payable",
      "type": "function",
      "signature": "0xc727c25e"
    },
    {
      "constant": false,
      "inputs": [
        {
          "name": "_upc",
          "type": "uint256"
        }
      ],
      "name": "transferToBuyer",
      "outputs": [],
      "payable": false,
      "stateMutability": "nonpayable",
      "type": "function",
      "signature": "0x9f32db60"
    },
    {
      "constant": false,
      "inputs": [
        {
          "name": "_upc",
          "type": "uint256"
        },
        {
          "name": "shipper",
          "type": "address"
        }
      ],
      "name": "submitShipment",
      "outputs": [],
      "payable": false,
      "stateMutability": "nonpayable",
      "type": "function",
      "signature": "0x0d997688"
    },
    {
      "constant": false,
      "inputs": [
        {
          "name": "_upc",
          "type": "uint256"
        }
      ],
      "name": "ship",
      "outputs": [],
      "payable": false,
      "stateMutability": "nonpayable",
      "type": "function",
      "signature": "0x244f643b"
    },
    {
      "constant": false,
      "inputs": [
        {
          "name": "_upc",
          "type": "uint256"
        }
      ],
      "name": "shipped",
      "outputs": [],
      "payable": false,
      "stateMutability": "nonpayable",
      "type": "function",
      "signature": "0xae3fc702"
    },
    {
      "constant": false,
      "inputs": [
        {
          "name": "_upc",
          "type": "uint256"
        }
      ],
      "name": "forSaleByBuyer",
      "outputs": [],
      "payable": false,
      "stateMutability": "nonpayable",
      "type": "function",
      "signature": "0x9bccc79e"
    },
    {
      "constant": false,
      "inputs": [
        {
          "name": "_upc",
          "type": "uint256"
        }
      ],
      "name": "customerBuysCoconuts",
      "outputs": [],
      "payable": true,
      "stateMutability": "payable",
      "type": "function",
      "signature": "0x82a9e7d3"
    },
    {
      "constant": true,
      "inputs": [
        {
          "name": "_upc",
          "type": "uint256"
        }
      ],
      "name": "fetchItemBufferOne",
      "outputs": [
        {
          "name": "itemSKU",
          "type": "uint256"
        },
        {
          "name": "itemUPC",
          "type": "uint256"
        },
        {
          "name": "ownerID",
          "type": "address"
        },
        {
          "name": "originFarmerID",
          "type": "address"
        },
        {
          "name": "originFarmName",
          "type": "string"
        },
        {
          "name": "originFarmInformation",
          "type": "string"
        },
        {
          "name": "originFarmLatitude",
          "type": "string"
        },
        {
          "name": "originFarmLongitude",
          "type": "string"
        }
      ],
      "payable": false,
      "stateMutability": "view",
      "type": "function",
      "signature": "0x77c45913"
    },
    {
      "constant": true,
      "inputs": [
        {
          "name": "_upc",
          "type": "uint256"
        }
      ],
      "name": "fetchItemBufferTwo",
      "outputs": [
        {
          "name": "itemSKU",
          "type": "uint256"
        },
        {
          "name": "itemUPC",
          "type": "uint256"
        },
        {
          "name": "productID",
          "type": "uint256"
        },
        {
          "name": "productNotes",
          "type": "string"
        },
        {
          "name": "productPrice",
          "type": "uint256"
        },
        {
          "name": "itemState",
          "type": "uint256"
        },
        {
          "name": "shipperID",
          "type": "address"
        },
        {
          "name": "superMarketID",
          "type": "address"
        },
        {
          "name": "customerID",
          "type": "address"
        }
      ],
      "payable": false,
      "stateMutability": "view",
      "type": "function",
      "signature": "0x66225ff9"
    }
  ],
  "bytecode": "0x6080604052336000806101000a81548173ffffffffffffffffffffffffffffffffffffffff021916908373ffffffffffffffffffffffffffffffffffffffff1602179055506000809054906101000a900473ffffffffffffffffffffffffffffffffffffffff1673ffffffffffffffffffffffffffffffffffffffff16600073ffffffffffffffffffffffffffffffffffffffff167f5c486528ec3e3f0ea91181cff8116f02bfa350e03b8b6f12e00765adbb5af85c60405160405180910390a3620000da336200017f640100000000026401000000009004565b620000f43362000206640100000000026401000000009004565b6200010e336200026d640100000000026401000000009004565b6200012833620002f4640100000000026401000000009004565b33600560006101000a81548173ffffffffffffffffffffffffffffffffffffffff021916908373ffffffffffffffffffffffffffffffffffffffff16021790555060016007819055506001600681905550620005ee565b620001a06001826200035b64010000000002620038a2176401000000009004565b7fcd118a02bd36f224f6f1b93812f78d2bbc2c2dc1bc0f60c176e3b4fe09f1483f81604051808273ffffffffffffffffffffffffffffffffffffffff1673ffffffffffffffffffffffffffffffffffffffff16815260200191505060405180910390a150565b620002276002826200035b64010000000002620038a2176401000000009004565b8073ffffffffffffffffffffffffffffffffffffffff167f2e0ded4123377a3c2bc9a26f1717655a129e2f20752924d42e730ec89c83dbd060405160405180910390a250565b6200028e6003826200035b64010000000002620038a2176401000000009004565b7fa6b0d643c10c5fda6645b77a5fb2e02bc2cbd3597d2a30910ca9f42db8b948ca81604051808273ffffffffffffffffffffffffffffffffffffffff1673ffffffffffffffffffffffffffffffffffffffff16815260200191505060405180910390a150565b620003156004826200035b64010000000002620038a2176401000000009004565b8073ffffffffffffffffffffffffffffffffffffffff167f3e8b6c25714070dcebd930fe0d9592c40580e5afd0b4e8e3727181b801e733f560405160405180910390a250565b600073ffffffffffffffffffffffffffffffffffffffff168173ffffffffffffffffffffffffffffffffffffffff161415151562000401576040517f08c379a000000000000000000000000000000000000000000000000000000000815260040180806020018281038252600f8152602001807f696e76616c69642061646472657373000000000000000000000000000000000081525060200191505060405180910390fd5b6200041c8282620004f0640100000000026401000000009004565b15151562000492576040517f08c379a00000000000000000000000000000000000000000000000000000000081526004018080602001828103825260188152602001807f6163636f756e7420616c72656164792068617320726f6c65000000000000000081525060200191505060405180910390fd5b60018260000160008373ffffffffffffffffffffffffffffffffffffffff1673ffffffffffffffffffffffffffffffffffffffff16815260200190815260200160002060006101000a81548160ff0219169083151502179055505050565b60008073ffffffffffffffffffffffffffffffffffffffff168273ffffffffffffffffffffffffffffffffffffffff161415151562000597576040517f08c379a000000000000000000000000000000000000000000000000000000000815260040180806020018281038252600f8152602001807f696e76616c69642061646472657373000000000000000000000000000000000081525060200191505060405180910390fd5b8260000160008373ffffffffffffffffffffffffffffffffffffffff1673ffffffffffffffffffffffffffffffffffffffff16815260200190815260200160002060009054906101000a900460ff16905092915050565b613c9780620005fe6000396000f3fe6080604052600436106101df576000357c01000000000000000000000000000000000000000000000000000000009004806382a9e7d311610114578063ad973d74116100b2578063d3fc786f11610081578063d3fc786f14610e58578063d60c1d5514610ea9578063de9edc9f14610f12578063f2fde38b14610f29576101df565b8063ad973d7414610d35578063ae3fc70214610d86578063b942906914610dc1578063c727c25e14610e2a576101df565b80639bccc79e116100ee5780639bccc79e14610c3f5780639f32db6014610c7a578063a2d7e56114610cb5578063ac98e6db14610d1e576101df565b806382a9e7d314610b8b5780638da5cb5b14610bb95780638f32d59b14610c10576101df565b806341c0e1b511610181578063715018a61161015b578063715018a6146108a057806377c45913146108b757806380c3f96d14610b2357806380fc0ce414610b74576101df565b806341c0e1b5146106d45780635e96c694146106eb57806366225ff914610730576101df565b8063244f643b116101bd578063244f643b146102a757806328fd5e83146102e2578063333d6a431461034b57806339518d3814610386576101df565b80630d997688146101e457806314f6c3711461023f578063155a764614610256575b600080fd5b3480156101f057600080fd5b5061023d6004803603604081101561020757600080fd5b8101908080359060200190929190803573ffffffffffffffffffffffffffffffffffffffff169060200190929190505050610f7a565b005b34801561024b57600080fd5b506102546111c3565b005b34801561026257600080fd5b506102a56004803603602081101561027957600080fd5b81019080803573ffffffffffffffffffffffffffffffffffffffff1690602001909291905050506111ce565b005b3480156102b357600080fd5b506102e0600480360360208110156102ca57600080fd5b8101908080359060200190929190505050611257565b005b3480156102ee57600080fd5b506103316004803603602081101561030557600080fd5b81019080803573ffffffffffffffffffffffffffffffffffffffff1690602001909291905050506113f9565b604051808215151515815260200191505060405180910390f35b34801561035757600080fd5b506103846004803603602081101561036e57600080fd5b810190808035906020019092919050505061140d565b005b34801561039257600080fd5b506106d2600480360360e08110156103a957600080fd5b8101908080359060200190929190803573ffffffffffffffffffffffffffffffffffffffff169060200190929190803590602001906401000000008111156103f057600080fd5b82018360208201111561040257600080fd5b8035906020019184600183028401116401000000008311171561042457600080fd5b91908080601f016020809104026020016040519081016040528093929190818152602001838380828437600081840152601f19601f8201169050808301925050505050505091929192908035906020019064010000000081111561048757600080fd5b82018360208201111561049957600080fd5b803590602001918460018302840111640100000000831117156104bb57600080fd5b91908080601f016020809104026020016040519081016040528093929190818152602001838380828437600081840152601f19601f8201169050808301925050505050505091929192908035906020019064010000000081111561051e57600080fd5b82018360208201111561053057600080fd5b8035906020019184600183028401116401000000008311171561055257600080fd5b91908080601f016020809104026020016040519081016040528093929190818152602001838380828437600081840152601f19601f820116905080830192505050505050509192919290803590602001906401000000008111156105b557600080fd5b8201836020820111156105c757600080fd5b803590602001918460018302840111640100000000831117156105e957600080fd5b91908080601f016020809104026020016040519081016040528093929190818152602001838380828437600081840152601f19601f8201169050808301925050505050505091929192908035906020019064010000000081111561064c57600080fd5b82018360208201111561065e57600080fd5b8035906020019184600183028401116401000000008311171561068057600080fd5b91908080601f016020809104026020016040519081016040528093929190818152602001838380828437600081840152601f19601f8201169050808301925050505050505091929192905050506115af565b005b3480156106e057600080fd5b506106e9611969565b005b3480156106f757600080fd5b5061072e6004803603604081101561070e57600080fd5b8101908080359060200190929190803590602001909291905050506119e0565b005b34801561073c57600080fd5b506107696004803603602081101561075357600080fd5b8101908080359060200190929190505050611c16565b604051808a8152602001898152602001888152602001806020018781526020018681526020018573ffffffffffffffffffffffffffffffffffffffff1673ffffffffffffffffffffffffffffffffffffffff1681526020018473ffffffffffffffffffffffffffffffffffffffff1673ffffffffffffffffffffffffffffffffffffffff1681526020018373ffffffffffffffffffffffffffffffffffffffff1673ffffffffffffffffffffffffffffffffffffffff168152602001828103825288818151815260200191508051906020019080838360005b8381101561085d578082015181840152602081019050610842565b50505050905090810190601f16801561088a5780820380516001836020036101000a031916815260200191505b509a505050505050505050505060405180910390f35b3480156108ac57600080fd5b506108b5611e28565b005b3480156108c357600080fd5b506108f0600480360360208110156108da57600080fd5b8101908080359060200190929190505050611fac565b604051808981526020018881526020018773ffffffffffffffffffffffffffffffffffffffff1673ffffffffffffffffffffffffffffffffffffffff1681526020018673ffffffffffffffffffffffffffffffffffffffff1673ffffffffffffffffffffffffffffffffffffffff16815260200180602001806020018060200180602001858103855289818151815260200191508051906020019080838360005b838110156109ac578082015181840152602081019050610991565b50505050905090810190601f1680156109d95780820380516001836020036101000a031916815260200191505b50858103845288818151815260200191508051906020019080838360005b83811015610a125780820151818401526020810190506109f7565b50505050905090810190601f168015610a3f5780820380516001836020036101000a031916815260200191505b50858103835287818151815260200191508051906020019080838360005b83811015610a78578082015181840152602081019050610a5d565b50505050905090810190601f168015610aa55780820380516001836020036101000a031916815260200191505b50858103825286818151815260200191508051906020019080838360005b83811015610ade578082015181840152602081019050610ac3565b50505050905090810190601f168015610b0b5780820380516001836020036101000a031916815260200191505b509c5050505050505050505050505060405180910390f35b348015610b2f57600080fd5b50610b7260048036036020811015610b4657600080fd5b81019080803573ffffffffffffffffffffffffffffffffffffffff16906020019092919050505061232d565b005b348015610b8057600080fd5b50610b896123b6565b005b610bb760048036036020811015610ba157600080fd5b81019080803590602001909291905050506123c1565b005b348015610bc557600080fd5b50610bce612747565b604051808273ffffffffffffffffffffffffffffffffffffffff1673ffffffffffffffffffffffffffffffffffffffff16815260200191505060405180910390f35b348015610c1c57600080fd5b50610c25612770565b604051808215151515815260200191505060405180910390f35b348015610c4b57600080fd5b50610c7860048036036020811015610c6257600080fd5b81019080803590602001909291905050506127c7565b005b348015610c8657600080fd5b50610cb360048036036020811015610c9d57600080fd5b81019080803590602001909291905050506129ca565b005b348015610cc157600080fd5b50610d0460048036036020811015610cd857600080fd5b81019080803573ffffffffffffffffffffffffffffffffffffffff169060200190929190505050612ba4565b604051808215151515815260200191505060405180910390f35b348015610d2a57600080fd5b50610d33612bb8565b005b348015610d4157600080fd5b50610d8460048036036020811015610d5857600080fd5b81019080803573ffffffffffffffffffffffffffffffffffffffff169060200190929190505050612bc3565b005b348015610d9257600080fd5b50610dbf60048036036020811015610da957600080fd5b8101908080359060200190929190505050612c4c565b005b348015610dcd57600080fd5b50610e1060048036036020811015610de457600080fd5b81019080803573ffffffffffffffffffffffffffffffffffffffff169060200190929190505050612e79565b604051808215151515815260200191505060405180910390f35b610e5660048036036020811015610e4057600080fd5b8101908080359060200190929190505050612e8d565b005b348015610e6457600080fd5b50610ea760048036036020811015610e7b57600080fd5b81019080803573ffffffffffffffffffffffffffffffffffffffff1690602001909291905050506131be565b005b348015610eb557600080fd5b50610ef860048036036020811015610ecc57600080fd5b81019080803573ffffffffffffffffffffffffffffffffffffffff16906020019092919050505061322a565b604051808215151515815260200191505060405180910390f35b348015610f1e57600080fd5b50610f2761323e565b005b348015610f3557600080fd5b50610f7860048036036020811015610f4c57600080fd5b81019080803573ffffffffffffffffffffffffffffffffffffffff169060200190929190505050613249565b005b610f8333612ba4565b1515610fda576040517f08c379a0000000000000000000000000000000000000000000000000000000008152600401808060200182810382526021815260200180613c4b6021913960400191505060405180910390fd5b8160046009811115610fe857fe5b60086000838152602001908152602001600020600b0160009054906101000a900460ff16600981111561101757fe5b14151561108c576040517f08c379a00000000000000000000000000000000000000000000000000000000081526004018080602001828103825260188152602001807f6e6f74207472616e7366657272656420746f206275796572000000000000000081525060200191505060405180910390fd5b600560086000858152602001908152602001600020600b0160006101000a81548160ff021916908360098111156110bf57fe5b02179055508160086000858152602001908152602001600020600b0160016101000a81548173ffffffffffffffffffffffffffffffffffffffff021916908373ffffffffffffffffffffffffffffffffffffffff160217905550816008600085815260200190815260200160002060020160006101000a81548173ffffffffffffffffffffffffffffffffffffffff021916908373ffffffffffffffffffffffffffffffffffffffff1602179055506111778261322a565b1515611187576111868261331a565b5b7fdb957327915d5cd92f68273027fe8b1152de34dba69f428eed8c5e5baff20e36836040518082815260200191505060405180910390a1505050565b6111cc3361338b565b565b6111d73361322a565b151561124b576040517f08c379a000000000000000000000000000000000000000000000000000000000815260040180806020018281038252601d8152602001807f726f6c652076696f6c6174696f6e3a206e6f742061207368697070657200000081525060200191505060405180910390fd5b6112548161331a565b50565b6112603361322a565b15156112d4576040517f08c379a000000000000000000000000000000000000000000000000000000000815260040180806020018281038252601d8152602001807f726f6c652076696f6c6174696f6e3a206e6f742061207368697070657200000081525060200191505060405180910390fd5b80600560098111156112e257fe5b60086000838152602001908152602001600020600b0160009054906101000a900460ff16600981111561131157fe5b141515611386576040517f08c379a00000000000000000000000000000000000000000000000000000000081526004018080602001828103825260158152602001807f6e6f74206177616974696e67207368697070696e67000000000000000000000081525060200191505060405180910390fd5b600660086000848152602001908152602001600020600b0160006101000a81548160ff021916908360098111156113b957fe5b02179055507f2670c31405517b484e31733e8ed7d2247cb77935fcf7f48b34f85c1c01d07ee0826040518082815260200191505060405180910390a15050565b60006114066001836133dc565b9050919050565b61141633612e79565b151561148a576040517f08c379a000000000000000000000000000000000000000000000000000000000815260040180806020018281038252601c8152602001807f726f6c652076696f6c6174696f6e3a206e6f742061206661726d65720000000081525060200191505060405180910390fd5b806000600981111561149857fe5b60086000838152602001908152602001600020600b0160009054906101000a900460ff1660098111156114c757fe5b14151561153c576040517f08c379a00000000000000000000000000000000000000000000000000000000081526004018080602001828103825260158152602001807f6e6f7420726561647920666f722068617276657374000000000000000000000081525060200191505060405180910390fd5b600160086000848152602001908152602001600020600b0160006101000a81548160ff0219169083600981111561156f57fe5b02179055507f8e55ccfc9778ff8eba1646d765cf1982537ce0f9257054a17b48aad745250183826040518082815260200191505060405180910390a15050565b600060075461271089020190506101e06040519081016040528060075481526020018981526020018873ffffffffffffffffffffffffffffffffffffffff1681526020018873ffffffffffffffffffffffffffffffffffffffff168152602001878152602001868152602001858152602001848152602001828152602001838152602001600081526020016000600981111561164757fe5b8152602001600073ffffffffffffffffffffffffffffffffffffffff168152602001600073ffffffffffffffffffffffffffffffffffffffff168152602001600073ffffffffffffffffffffffffffffffffffffffff16815250600860008a8152602001908152602001600020600082015181600001556020820151816001015560408201518160020160006101000a81548173ffffffffffffffffffffffffffffffffffffffff021916908373ffffffffffffffffffffffffffffffffffffffff16021790555060608201518160030160006101000a81548173ffffffffffffffffffffffffffffffffffffffff021916908373ffffffffffffffffffffffffffffffffffffffff1602179055506080820151816004019080519060200190611772929190613ba5565b5060a082015181600501908051906020019061178f929190613ba5565b5060c08201518160060190805190602001906117ac929190613ba5565b5060e08201518160070190805190602001906117c9929190613ba5565b5061010082015181600801556101208201518160090190805190602001906117f2929190613ba5565b5061014082015181600a015561016082015181600b0160006101000a81548160ff0219169083600981111561182357fe5b021790555061018082015181600b0160016101000a81548173ffffffffffffffffffffffffffffffffffffffff021916908373ffffffffffffffffffffffffffffffffffffffff1602179055506101a082015181600c0160006101000a81548173ffffffffffffffffffffffffffffffffffffffff021916908373ffffffffffffffffffffffffffffffffffffffff1602179055506101c082015181600d0160006101000a81548173ffffffffffffffffffffffffffffffffffffffff021916908373ffffffffffffffffffffffffffffffffffffffff16021790555090505060016007540160078190555061191887612e79565b151561192857611927876134d9565b5b7f662db5dacbef8430df8570e6d915159098fc6f08fc5ddd14d056f1048b359359886040518082815260200191505060405180910390a15050505050505050565b6000600560009054906101000a900473ffffffffffffffffffffffffffffffffffffffff1690508073ffffffffffffffffffffffffffffffffffffffff163373ffffffffffffffffffffffffffffffffffffffff1614156119dd578073ffffffffffffffffffffffffffffffffffffffff16ff5b50565b6119e933612e79565b1515611a5d576040517f08c379a000000000000000000000000000000000000000000000000000000000815260040180806020018281038252601c8152602001807f726f6c652076696f6c6174696f6e3a206e6f742061206661726d65720000000081525060200191505060405180910390fd5b8160016009811115611a6b57fe5b60086000838152602001908152602001600020600b0160009054906101000a900460ff166009811115611a9a57fe5b141515611b0f576040517f08c379a000000000000000000000000000000000000000000000000000000000815260040180806020018281038252600d8152602001807f6e6f74206861727665737465640000000000000000000000000000000000000081525060200191505060405180910390fd5b600082111515611b87576040517f08c379a000000000000000000000000000000000000000000000000000000000815260040180806020018281038252600d8152602001807f496e76616c69642070726963650000000000000000000000000000000000000081525060200191505060405180910390fd5b600260086000858152602001908152602001600020600b0160006101000a81548160ff02191690836009811115611bba57fe5b02179055508160086000858152602001908152602001600020600a01819055507f7a02b5a0b1f928cffcafd0e750f369a40f124f4f34f65801fe1f0d945b9a7915836040518082815260200191505060405180910390a1505050565b600080600060606000806000806000600860008b8152602001908152602001600020600001549850899750600860008b8152602001908152602001600020600801549650600860008b81526020019081526020016000206009018054600181600116156101000203166002900480601f016020809104026020016040519081016040528092919081815260200182805460018160011615610100020316600290048015611d045780601f10611cd957610100808354040283529160200191611d04565b820191906000526020600020905b815481529060010190602001808311611ce757829003601f168201915b50505050509550600860008b8152602001908152602001600020600a01549450600860008b8152602001908152602001600020600b0160009054906101000a900460ff166009811115611d5357fe5b9350600860008b8152602001908152602001600020600b0160019054906101000a900473ffffffffffffffffffffffffffffffffffffffff169250600860008b8152602001908152602001600020600c0160009054906101000a900473ffffffffffffffffffffffffffffffffffffffff169150600860008b8152602001908152602001600020600d0160009054906101000a900473ffffffffffffffffffffffffffffffffffffffff1690508888888888888888889850985098509850985098509850985098509193959799909294969850565b600560009054906101000a900473ffffffffffffffffffffffffffffffffffffffff1673ffffffffffffffffffffffffffffffffffffffff163373ffffffffffffffffffffffffffffffffffffffff16141515611eed576040517f08c379a000000000000000000000000000000000000000000000000000000000815260040180806020018281038252600d8152602001807f6d757374206265206f776e65720000000000000000000000000000000000000081525060200191505060405180910390fd5b600073ffffffffffffffffffffffffffffffffffffffff166000809054906101000a900473ffffffffffffffffffffffffffffffffffffffff1673ffffffffffffffffffffffffffffffffffffffff167f5c486528ec3e3f0ea91181cff8116f02bfa350e03b8b6f12e00765adbb5af85c60405160405180910390a360008060006101000a81548173ffffffffffffffffffffffffffffffffffffffff021916908373ffffffffffffffffffffffffffffffffffffffff160217905550565b600080600080606080606080600860008a8152602001908152602001600020600001549750889650600860008a815260200190815260200160002060020160009054906101000a900473ffffffffffffffffffffffffffffffffffffffff169550600860008a815260200190815260200160002060030160009054906101000a900473ffffffffffffffffffffffffffffffffffffffff169450600860008a81526020019081526020016000206004018054600181600116156101000203166002900480601f0160208091040260200160405190810160405280929190818152602001828054600181600116156101000203166002900480156120f05780601f106120c5576101008083540402835291602001916120f0565b820191906000526020600020905b8154815290600101906020018083116120d357829003601f168201915b50505050509350600860008a81526020019081526020016000206005018054600181600116156101000203166002900480601f0160208091040260200160405190810160405280929190818152602001828054600181600116156101000203166002900480156121a15780601f10612176576101008083540402835291602001916121a1565b820191906000526020600020905b81548152906001019060200180831161218457829003601f168201915b50505050509250600860008a81526020019081526020016000206006018054600181600116156101000203166002900480601f0160208091040260200160405190810160405280929190818152602001828054600181600116156101000203166002900480156122525780601f1061222757610100808354040283529160200191612252565b820191906000526020600020905b81548152906001019060200180831161223557829003601f168201915b50505050509150600860008a81526020019081526020016000206007018054600181600116156101000203166002900480601f0160208091040260200160405190810160405280929190818152602001828054600181600116156101000203166002900480156123035780601f106122d857610100808354040283529160200191612303565b820191906000526020600020905b8154815290600101906020018083116122e657829003601f168201915b50505050509050878787878787878797509750975097509750975097509750919395975091939597565b61233633612e79565b15156123aa576040517f08c379a000000000000000000000000000000000000000000000000000000000815260040180806020018281038252601c8152602001807f726f6c652076696f6c6174696f6e3a206e6f742061206661726d65720000000081525060200191505060405180910390fd5b6123b3816134d9565b50565b6123bf3361352a565b565b80600860098111156123cf57fe5b60086000838152602001908152602001600020600b0160009054906101000a900460ff1660098111156123fe57fe5b141515612473576040517f08c379a00000000000000000000000000000000000000000000000000000000081526004018080602001828103825260158152602001807f6e6f7420666f722073616c65206279206275796572000000000000000000000081525060200191505060405180910390fd5b60086000838152602001908152602001600020600a0154803410151515612502576040517f08c379a00000000000000000000000000000000000000000000000000000000081526004018080602001828103825260148152602001807f696e73756666696369656e74207061796d656e7400000000000000000000000081525060200191505060405180910390fd5b8233600960086000878152602001908152602001600020600b0160006101000a81548160ff0219169083600981111561253757fe5b0217905550336008600087815260200190815260200160002060020160006101000a81548173ffffffffffffffffffffffffffffffffffffffff021916908373ffffffffffffffffffffffffffffffffffffffff1602179055503360086000878152602001908152602001600020600d0160006101000a81548173ffffffffffffffffffffffffffffffffffffffff021916908373ffffffffffffffffffffffffffffffffffffffff160217905550600060086000878152602001908152602001600020600c0160009054906101000a900473ffffffffffffffffffffffffffffffffffffffff1690508073ffffffffffffffffffffffffffffffffffffffff166108fc60086000898152602001908152602001600020600a01549081150290604051600060405180830381858888f1935050505015801561267d573d6000803e3d6000fd5b50612687336113f9565b1515612697576126963361357b565b5b7ff3806dfa52c0c51e2721093e040da4d51ff9974aeeaff0f0a9c6a631aca0a20a866040518082815260200191505060405180910390a150600060086000848152602001908152602001600020600a015490506000813403905060008390508073ffffffffffffffffffffffffffffffffffffffff166108fc839081150290604051600060405180830381858888f1935050505015801561273c573d6000803e3d6000fd5b505050505050505050565b60008060009054906101000a900473ffffffffffffffffffffffffffffffffffffffff16905090565b60008060009054906101000a900473ffffffffffffffffffffffffffffffffffffffff1673ffffffffffffffffffffffffffffffffffffffff163373ffffffffffffffffffffffffffffffffffffffff1614905090565b6127d033612ba4565b1515612827576040517f08c379a0000000000000000000000000000000000000000000000000000000008152600401808060200182810382526021815260200180613c4b6021913960400191505060405180910390fd5b806007600981111561283557fe5b60086000838152602001908152602001600020600b0160009054906101000a900460ff16600981111561286457fe5b1415156128d9576040517f08c379a000000000000000000000000000000000000000000000000000000000815260040180806020018281038252600b8152602001807f6e6f74207368697070656400000000000000000000000000000000000000000081525060200191505060405180910390fd5b6008806000848152602001908152602001600020600b0160006101000a81548160ff0219169083600981111561290b57fe5b02179055506129756129506064612942600a60086000888152602001908152602001600020600a01546135ec90919063ffffffff16565b61362a90919063ffffffff16565b60086000858152602001908152602001600020600a015461365490919063ffffffff16565b60086000848152602001908152602001600020600a01819055507ff4cf7f740cd60770636bf763f4bd9bfc6d9527b46596dcf42191b15d7524ee7c826040518082815260200191505060405180910390a15050565b6129d333612ba4565b1515612a2a576040517f08c379a0000000000000000000000000000000000000000000000000000000008152600401808060200182810382526021815260200180613c4b6021913960400191505060405180910390fd5b8060036009811115612a3857fe5b60086000838152602001908152602001600020600b0160009054906101000a900460ff166009811115612a6757fe5b141515612adc576040517f08c379a00000000000000000000000000000000000000000000000000000000081526004018080602001828103825260118152602001807f6e6f7420736f6c6420746f20627579657200000000000000000000000000000081525060200191505060405180910390fd5b600460086000848152602001908152602001600020600b0160006101000a81548160ff02191690836009811115612b0f57fe5b0217905550336008600084815260200190815260200160002060020160006101000a81548173ffffffffffffffffffffffffffffffffffffffff021916908373ffffffffffffffffffffffffffffffffffffffff1602179055507ff244ad47b90b40cec71d64ca8ab8b0d77704fe22d67f676f1c02cf0cb9bbce61826040518082815260200191505060405180910390a15050565b6000612bb16004836133dc565b9050919050565b612bc133613675565b565b612bcc336113f9565b1515612c40576040517f08c379a000000000000000000000000000000000000000000000000000000000815260040180806020018281038252601e8152602001807f726f6c652076696f6c6174696f6e3a206e6f74206120637573746f6d6572000081525060200191505060405180910390fd5b612c498161357b565b50565b612c553361322a565b1515612cc9576040517f08c379a000000000000000000000000000000000000000000000000000000000815260040180806020018281038252601d8152602001807f726f6c652076696f6c6174696f6e3a206e6f742061207368697070657200000081525060200191505060405180910390fd5b8060066009811115612cd757fe5b60086000838152602001908152602001600020600b0160009054906101000a900460ff166009811115612d0657fe5b141515612d7b576040517f08c379a000000000000000000000000000000000000000000000000000000000815260040180806020018281038252600c8152602001807f6e6f74207368697070696e67000000000000000000000000000000000000000081525060200191505060405180910390fd5b600760086000848152602001908152602001600020600b0160006101000a81548160ff02191690836009811115612dae57fe5b021790555060086000838152602001908152602001600020600c0160009054906101000a900473ffffffffffffffffffffffffffffffffffffffff166008600084815260200190815260200160002060020160006101000a81548173ffffffffffffffffffffffffffffffffffffffff021916908373ffffffffffffffffffffffffffffffffffffffff1602179055507ff00b9a5725b80c54016f42114f6ed7792d22eecb116011c4afac29c57bef6c95826040518082815260200191505060405180910390a15050565b6000612e866002836133dc565b9050919050565b8060026009811115612e9b57fe5b60086000838152602001908152602001600020600b0160009054906101000a900460ff166009811115612eca57fe5b141515612f3f576040517f08c379a00000000000000000000000000000000000000000000000000000000081526004018080602001828103825260168152602001807f6e6f7420666f722073616c65206279206661726d65720000000000000000000081525060200191505060405180910390fd5b60086000838152602001908152602001600020600a0154803410151515612fce576040517f08c379a00000000000000000000000000000000000000000000000000000000081526004018080602001828103825260148152602001807f696e73756666696369656e74207061796d656e7400000000000000000000000081525060200191505060405180910390fd5b8233600360086000878152602001908152602001600020600b0160006101000a81548160ff0219169083600981111561300357fe5b02179055503360086000878152602001908152602001600020600c0160006101000a81548173ffffffffffffffffffffffffffffffffffffffff021916908373ffffffffffffffffffffffffffffffffffffffff16021790555060006008600087815260200190815260200160002060030160009054906101000a900473ffffffffffffffffffffffffffffffffffffffff1690508073ffffffffffffffffffffffffffffffffffffffff166108fc60086000898152602001908152602001600020600a01549081150290604051600060405180830381858888f193505050501580156130f4573d6000803e3d6000fd5b506130fe33612ba4565b151561310e5761310d336136e6565b5b7fdb064ca7284e7d41dd5dd86d72f373da176d110c558ef9e3d652ad49dc15df6a866040518082815260200191505060405180910390a150600060086000848152602001908152602001600020600a015490506000813403905060008390508073ffffffffffffffffffffffffffffffffffffffff166108fc839081150290604051600060405180830381858888f193505050501580156131b3573d6000803e3d6000fd5b505050505050505050565b6131c733612ba4565b151561321e576040517f08c379a0000000000000000000000000000000000000000000000000000000008152600401808060200182810382526021815260200180613c4b6021913960400191505060405180910390fd5b613227816136e6565b50565b60006132376003836133dc565b9050919050565b61324733613737565b565b600560009054906101000a900473ffffffffffffffffffffffffffffffffffffffff1673ffffffffffffffffffffffffffffffffffffffff163373ffffffffffffffffffffffffffffffffffffffff1614151561330e576040517f08c379a000000000000000000000000000000000000000000000000000000000815260040180806020018281038252600d8152602001807f6d757374206265206f776e65720000000000000000000000000000000000000081525060200191505060405180910390fd5b613317816137a8565b50565b6133256003826138a2565b7fa6b0d643c10c5fda6645b77a5fb2e02bc2cbd3597d2a30910ca9f42db8b948ca81604051808273ffffffffffffffffffffffffffffffffffffffff1673ffffffffffffffffffffffffffffffffffffffff16815260200191505060405180910390a150565b613396600482613a24565b8073ffffffffffffffffffffffffffffffffffffffff167f15d2b381eb4092b28724b6b0527f13de7431b61db9e6f8ad6c171c35afbfb54460405160405180910390a250565b60008073ffffffffffffffffffffffffffffffffffffffff168273ffffffffffffffffffffffffffffffffffffffff1614151515613482576040517f08c379a000000000000000000000000000000000000000000000000000000000815260040180806020018281038252600f8152602001807f696e76616c69642061646472657373000000000000000000000000000000000081525060200191505060405180910390fd5b8260000160008373ffffffffffffffffffffffffffffffffffffffff1673ffffffffffffffffffffffffffffffffffffffff16815260200190815260200160002060009054906101000a900460ff16905092915050565b6134e46002826138a2565b8073ffffffffffffffffffffffffffffffffffffffff167f2e0ded4123377a3c2bc9a26f1717655a129e2f20752924d42e730ec89c83dbd060405160405180910390a250565b613535600282613a24565b8073ffffffffffffffffffffffffffffffffffffffff167fa5e0f060af304ab17dd418c7927e3da3ae7868189bf387aee09ab179ccc572f260405160405180910390a250565b6135866001826138a2565b7fcd118a02bd36f224f6f1b93812f78d2bbc2c2dc1bc0f60c176e3b4fe09f1483f81604051808273ffffffffffffffffffffffffffffffffffffffff1673ffffffffffffffffffffffffffffffffffffffff16815260200191505060405180910390a150565b6000808314156135ff5760009050613624565b6000828402905082848281151561361257fe5b0414151561361f57600080fd5b809150505b92915050565b6000808211151561363a57600080fd5b6000828481151561364757fe5b0490508091505092915050565b600080828401905083811015151561366b57600080fd5b8091505092915050565b613680600182613a24565b7fb4c88a9c5cd906354abdd1cc29e4f94c6c4de90754fb80ce51e6a33417bc81b681604051808273ffffffffffffffffffffffffffffffffffffffff1673ffffffffffffffffffffffffffffffffffffffff16815260200191505060405180910390a150565b6136f16004826138a2565b8073ffffffffffffffffffffffffffffffffffffffff167f3e8b6c25714070dcebd930fe0d9592c40580e5afd0b4e8e3727181b801e733f560405160405180910390a250565b613742600382613a24565b7f4098c33ee7259bdc6331fa574feb5904acfe84b01ace83ede4bc77e2d3ad673881604051808273ffffffffffffffffffffffffffffffffffffffff1673ffffffffffffffffffffffffffffffffffffffff16815260200191505060405180910390a150565b600073ffffffffffffffffffffffffffffffffffffffff168173ffffffffffffffffffffffffffffffffffffffff16141515156137e457600080fd5b8073ffffffffffffffffffffffffffffffffffffffff166000809054906101000a900473ffffffffffffffffffffffffffffffffffffffff1673ffffffffffffffffffffffffffffffffffffffff167f5c486528ec3e3f0ea91181cff8116f02bfa350e03b8b6f12e00765adbb5af85c60405160405180910390a3806000806101000a81548173ffffffffffffffffffffffffffffffffffffffff021916908373ffffffffffffffffffffffffffffffffffffffff16021790555050565b600073ffffffffffffffffffffffffffffffffffffffff168173ffffffffffffffffffffffffffffffffffffffff1614151515613947576040517f08c379a000000000000000000000000000000000000000000000000000000000815260040180806020018281038252600f8152602001807f696e76616c69642061646472657373000000000000000000000000000000000081525060200191505060405180910390fd5b61395182826133dc565b1515156139c6576040517f08c379a00000000000000000000000000000000000000000000000000000000081526004018080602001828103825260188152602001807f6163636f756e7420616c72656164792068617320726f6c65000000000000000081525060200191505060405180910390fd5b60018260000160008373ffffffffffffffffffffffffffffffffffffffff1673ffffffffffffffffffffffffffffffffffffffff16815260200190815260200160002060006101000a81548160ff0219169083151502179055505050565b600073ffffffffffffffffffffffffffffffffffffffff168173ffffffffffffffffffffffffffffffffffffffff1614151515613ac9576040517f08c379a000000000000000000000000000000000000000000000000000000000815260040180806020018281038252600f8152602001807f696e76616c69642061646472657373000000000000000000000000000000000081525060200191505060405180910390fd5b613ad382826133dc565b1515613b47576040517f08c379a00000000000000000000000000000000000000000000000000000000081526004018080602001828103825260188152602001807f6163636f756e7420646f65736e74206861766520726f6c65000000000000000081525060200191505060405180910390fd5b60008260000160008373ffffffffffffffffffffffffffffffffffffffff1673ffffffffffffffffffffffffffffffffffffffff16815260200190815260200160002060006101000a81548160ff0219169083151502179055505050565b828054600181600116156101000203166002900490600052602060002090601f016020900481019282601f10613be657805160ff1916838001178555613c14565b82800160010185558215613c14579182015b82811115613c13578251825591602001919060010190613bf8565b5b509050613c219190613c25565b5090565b613c4791905b80821115613c43576000816000905550600101613c2b565b5090565b9056fe726f6c652076696f6c6174696f6e3a206e6f7420612073757065726d61726b6574a165627a7a723058202413fb22ce1187a6aaeb63f5643d6480cc4c67c34efdc7fe665ab70b16d30e9a0029",
  "source": "pragma solidity ^0.5.2;\n// Define a contract 'Supplychain'\n\nimport \"../coffeeaccesscontrol/CustomerRole.sol\";\nimport \"../coffeeaccesscontrol/FarmerRole.sol\";\nimport \"../coffeeaccesscontrol/ShipperRole.sol\";\nimport \"../coffeeaccesscontrol/SupermarketRole.sol\";\nimport \"../coffeecore/Ownable.sol\";\nimport \"../../node_modules/openzeppelin-solidity/contracts/math/SafeMath.sol\";\n\n\ncontract SupplyChain is Ownable, CustomerRole, FarmerRole, ShipperRole, SupermarketRole {\n    using SafeMath for uint256;\n\n    // Define 'owner'\n    address owner_;\n\n    // Define a variable called 'upc' for Universal Product Code (UPC)\n    uint  upc;\n\n    // Define a variable called 'sku' for Stock Keeping Unit (SKU)\n    uint  sku;\n\n    // Define a public mapping 'items' that maps the UPC to an CoconutUnit.\n    mapping (uint => CoconutUnit) items;\n\n    // Define a public mapping 'itemsHistory' that maps the UPC to an array of TxHash,\n    // that track its journey through the supply chain -- to be sent from DApp.\n    mapping (uint => string[]) itemsHistory;\n\n    // Define enum 'State' with the following values:\n    enum State {\n        ReadyForHarvest, // 0\n        Harvested,\n        ForSaleByFarmer,\n        SoldToBuyer,\n        TransferredToBuyer,\n        AwaitingShipping,\n        Shipping,\n        Shipped,\n        ForSaleByBuyer,\n        SoldToCustomer\n    }\n\n    State private constant DEFAULT_STATE = State.ReadyForHarvest;\n\n    uint private constant MARKUP_FACTOR = 10;\n\n    // Define a struct 'Item' with the following fields:\n    struct CoconutUnit {\n        uint    sku;  // Stock Keeping Unit (SKU)\n        uint    upc; // Universal Product Code (UPC), generated by the Farmer, goes on the package, can be verified by the Customer\n        address ownerID;  // Metamask-Ethereum address of the current owner as the product moves through the stages\n        address originFarmerID; // Metamask-Ethereum address of the Farmer\n        string  originFarmName; // Farmer Name\n        string  originFarmInformation;  // Farmer Information\n        string  originFarmLatitude; // Farm Latitude\n        string  originFarmLongitude;  // Farm Longitude\n        uint    productID;  // Product ID potentially a combination of upc + sku\n        string  productNotes; // Product Notes\n        uint    productPrice; // Product Price\n        State   itemState;  // Product State as represented in the enum above\n        address shipperID;  // Metamask-Ethereum address of the Shipper\n        address superMarketID; // Metamask-Ethereum address of the Supermarket\n        address customerID; // Metamask-Ethereum address of the Customer\n    }\n\n    event ReadyForHarvest(uint _upc);\n    event Harvested(uint _upc);\n    event ForSaleByFarmer(uint _upc);\n    event SoldToBuyer(uint _upc);\n    event TransferredToBuyer(uint _upc);\n    event AwaitingShipping(uint _upc);\n    event Shipping(uint _upc);\n    event Shipped(uint _upc);\n    event ForSaleByBuyer(uint _upc);\n    event SoldToCustomer(uint _upc);\n\n    // Define a modifer that checks to see if msg.sender == owner of the contract\n    modifier onlyOwner() {\n        require(msg.sender == owner_, \"must be owner\");\n        _;\n    }\n\n    // Define a modifer that verifies the Caller\n    modifier verifyCaller (address _address) {\n        require(msg.sender == _address, \"unexpected address\");\n        _;\n    }\n\n    // Define a modifier that checks if the paid amount is sufficient to cover the price\n    modifier paidEnough(uint _price) {\n        require(msg.value >= _price, \"insufficient payment\");\n        _;\n    }\n\n    // Define a modifier that checks the price and refunds the remaining balance\n    modifier refundChange(uint _upc, address recepient) {\n        _;\n        uint _price = items[_upc].productPrice;\n        uint amountToReturn = msg.value - _price;\n        address payable payAddr = address(uint160(recepient));\n        payAddr.transfer(amountToReturn);\n    }\n\n    modifier readyForHarvest(uint _upc) {\n        require(items[_upc].itemState == State.ReadyForHarvest, \"not ready for harvest\");\n        _;\n    }\n\n    // Define a modifier that checks if an item.state of a upc is Harvested\n    modifier harvested(uint _upc) {\n        require(items[_upc].itemState == State.Harvested, \"not harvested\");\n        _;\n    }\n\n    modifier forSaleByFarmer(uint _upc) {\n        require(items[_upc].itemState == State.ForSaleByFarmer, \"not for sale by farmer\");\n        _;\n    }\n\n    modifier soldToBuyer(uint _upc) {\n        require(items[_upc].itemState == State.SoldToBuyer, \"not sold to buyer\");\n        _;\n    }\n\n    modifier transferredToBuyer(uint _upc) {\n        require(items[_upc].itemState == State.TransferredToBuyer, \"not transferred to buyer\");\n        _;\n    }\n\n    modifier awaitingShipping(uint _upc) {\n        require(items[_upc].itemState == State.AwaitingShipping, \"not awaiting shipping\");\n        _;\n    }\n\n    modifier shipping(uint _upc) {\n        require(items[_upc].itemState == State.Shipping, \"not shipping\");\n        _;\n    }\n\n    modifier isShipped(uint _upc) {\n        require(items[_upc].itemState == State.Shipped, \"not shipped\");\n        _;\n    }\n\n    modifier isForSaleByBuyer(uint _upc) {\n        require(items[_upc].itemState == State.ForSaleByBuyer, \"not for sale by buyer\");\n        _;\n    }\n\n    modifier soldToCustomer(uint _upc) {\n        require(items[_upc].itemState == State.SoldToCustomer, \"not sold to customer\");\n        _;\n    }\n\n    // In the constructor set 'owner' to the address that instantiated the contract\n    // and set 'sku' to 1\n    // and set 'upc' to 1\n    constructor() public payable {\n        owner_ = msg.sender;\n        sku = 1;\n        upc = 1;\n    }\n\n    // Define a function 'kill' if required\n    function kill() public {\n        address payable addr = address(uint160(owner_));\n        if (msg.sender == addr) {\n            selfdestruct(addr);\n        }\n    }\n\n    function prepareForHarvest(uint _upc, address _originFarmerID, string memory _originFarmName,\n        string memory _originFarmInformation,\n        string  memory _originFarmLatitude, string  memory _originFarmLongitude, string memory _productNotes)\n        public\n    {\n        uint prodId = _upc * 10000 + sku;\n        items[_upc] = CoconutUnit(sku, _upc, _originFarmerID, _originFarmerID, _originFarmName, _originFarmInformation,\n        _originFarmLatitude, _originFarmLongitude, prodId, _productNotes, 0, DEFAULT_STATE, address(0), address(0), address(0));\n        sku = sku + 1;\n        if (!isFarmer(_originFarmerID))\n            _addFarmer(_originFarmerID);\n        emit ReadyForHarvest(_upc);\n    }\n\n    // Define a function 'harvestItem' that allows a farmer to mark an item 'Harvested'\n    function harvestItem(uint _upc)\n        public\n        onlyFarmer\n        readyForHarvest(_upc)\n    {\n        items[_upc].itemState = State.Harvested;\n        emit Harvested(_upc);\n    }\n\n    function putUpForSale(uint _upc, uint price)\n        public\n        onlyFarmer\n        harvested(_upc)\n    {\n        require(price > 0, \"Invalid price\");\n        items[_upc].itemState = State.ForSaleByFarmer;\n        items[_upc].productPrice = price;\n        emit ForSaleByFarmer(_upc);\n    }\n\n    function buyerBuysCoconuts(uint _upc)\n        public\n        forSaleByFarmer(_upc)\n        payable\n        paidEnough(items[_upc].productPrice)\n        refundChange(_upc, msg.sender)\n    {\n        items[_upc].itemState = State.SoldToBuyer;\n        items[_upc].superMarketID = msg.sender;\n        address payable payAddr = address(uint160(items[_upc].originFarmerID));\n        payAddr.transfer(items[_upc].productPrice);\n        if (!isSupermarket(msg.sender))\n            _addSupermarket(msg.sender);\n        emit SoldToBuyer(_upc);\n    }\n\n    function transferToBuyer(uint _upc)\n    public\n    onlySupermarket\n    soldToBuyer(_upc)\n    {\n        items[_upc].itemState = State.TransferredToBuyer;\n        items[_upc].ownerID = msg.sender;\n        emit TransferredToBuyer(_upc);\n    }\n\n    function submitShipment(uint _upc, address shipper)\n    public\n    onlySupermarket\n    transferredToBuyer(_upc)\n    {\n        items[_upc].itemState = State.AwaitingShipping;\n        items[_upc].shipperID = shipper;\n        items[_upc].ownerID = shipper;\n        if (!isShipper(shipper))\n            _addShipper(shipper);\n        emit AwaitingShipping(_upc);\n    }\n\n    function ship(uint _upc)\n    public\n    onlyShipper\n    awaitingShipping(_upc)\n    {\n        items[_upc].itemState = State.Shipping;\n        emit Shipping(_upc);\n    }\n\n    function shipped(uint _upc)\n    public\n    onlyShipper\n    shipping(_upc)\n    {\n        items[_upc].itemState = State.Shipped;\n        items[_upc].ownerID = items[_upc].superMarketID;\n        emit Shipped(_upc);\n    }\n\n    function forSaleByBuyer(uint _upc)\n    public\n    onlySupermarket\n    isShipped(_upc)\n    {\n        items[_upc].itemState = State.ForSaleByBuyer;\n        items[_upc].productPrice = items[_upc].productPrice.add(items[_upc].productPrice.mul(MARKUP_FACTOR).div(100));\n        emit ForSaleByBuyer(_upc);\n    }\n\n    function customerBuysCoconuts(uint _upc)\n        public\n        isForSaleByBuyer(_upc)\n        payable\n        paidEnough(items[_upc].productPrice)\n        refundChange(_upc, msg.sender)\n    {\n        items[_upc].itemState = State.SoldToCustomer;\n        items[_upc].ownerID = msg.sender;\n        items[_upc].customerID = msg.sender;\n        address payable payAddr = address(uint160(items[_upc].superMarketID));\n        payAddr.transfer(items[_upc].productPrice);\n        if (!isCustomer(msg.sender))\n            _addCustomer(msg.sender);\n        emit SoldToCustomer(_upc);\n    }\n\n    function fetchItemBufferOne(uint _upc) public view returns\n    (\n        uint    itemSKU,\n        uint    itemUPC,\n        address ownerID,\n        address originFarmerID,\n        string  memory originFarmName,\n        string  memory originFarmInformation,\n        string  memory originFarmLatitude,\n        string  memory originFarmLongitude\n    )\n    {\n        itemSKU = items[_upc].sku;\n        itemUPC = _upc;\n        ownerID = items[_upc].ownerID;\n        originFarmerID = items[_upc].originFarmerID;\n        originFarmName = items[_upc].originFarmName;\n        originFarmInformation = items[_upc].originFarmInformation;\n        originFarmLatitude = items[_upc].originFarmLatitude;\n        originFarmLongitude = items[_upc].originFarmLongitude;\n\n        return\n        (\n            itemSKU,\n            itemUPC,\n            ownerID,\n            originFarmerID,\n            originFarmName,\n            originFarmInformation,\n            originFarmLatitude,\n            originFarmLongitude\n        );\n    }\n\n    // Define a function 'fetchItemBufferTwo' that fetches the data\n    function fetchItemBufferTwo(uint _upc) public view returns\n    (\n        uint    itemSKU,\n        uint    itemUPC,\n        uint    productID,\n        string  memory productNotes,\n        uint    productPrice,\n        uint    itemState,\n        address shipperID,\n        address superMarketID,\n        address customerID\n    )\n    {\n        itemSKU = items[_upc].sku;\n        itemUPC = _upc;\n        productID = items[_upc].productID;\n        productNotes = items[_upc].productNotes;\n        productPrice = items[_upc].productPrice;\n        itemState = uint(items[_upc].itemState);\n        shipperID = items[_upc].shipperID;\n        superMarketID = items[_upc].superMarketID;\n        customerID = items[_upc].customerID;\n\n        return\n        (\n            itemSKU,\n            itemUPC,\n            productID,\n            productNotes,\n            productPrice,\n            itemState,\n            shipperID,\n            superMarketID,\n            customerID\n        );\n    }\n\n}\n",
  "sourcePath": "/Users/alex/Documents/dev/blockchain/bdnd/term2/project1/contracts/coffeebase/SupplyChain.sol",
  "compiler": {
    "name": "solc",
    "version": "0.5.2+commit.1df8f40c.Emscripten.clang"
  },
  "schemaVersion": "3.0.6",
  "updatedAt": "2019-04-16T20:56:16.475Z",
  "devdoc": {
    "methods": {}
  },
  "userdoc": {
    "methods": {
      "isOwner()": {
        "notice": "Check if the calling address is the owner of the contract"
      },
      "owner()": {
        "notice": "Look up the address of the owner"
      },
      "renounceOwnership()": {
        "notice": "Define a function to renounce ownerhip"
      },
      "transferOwnership(address)": {
        "notice": "Define a public function to transfer ownership"
      }
    }
  }
}